{
  "_format": "hh-sol-artifact-1",
  "contractName": "NFT",
  "sourceName": "contracts/NFT_contract.sol",
  "abi": [
    {
      "inputs": [
        {
          "internalType": "string",
          "name": "_name",
          "type": "string"
        },
        {
          "internalType": "string",
          "name": "_symbol",
          "type": "string"
        },
        {
          "internalType": "string",
          "name": "_initBaseURI",
          "type": "string"
        },
        {
          "internalType": "string",
          "name": "_initNotRevealedUri",
          "type": "string"
        }
      ],
      "stateMutability": "nonpayable",
      "type": "constructor"
    },
    {
      "anonymous": false,
      "inputs": [
        {
          "indexed": true,
          "internalType": "address",
          "name": "owner",
          "type": "address"
        },
        {
          "indexed": true,
          "internalType": "address",
          "name": "approved",
          "type": "address"
        },
        {
          "indexed": true,
          "internalType": "uint256",
          "name": "tokenId",
          "type": "uint256"
        }
      ],
      "name": "Approval",
      "type": "event"
    },
    {
      "anonymous": false,
      "inputs": [
        {
          "indexed": true,
          "internalType": "address",
          "name": "owner",
          "type": "address"
        },
        {
          "indexed": true,
          "internalType": "address",
          "name": "operator",
          "type": "address"
        },
        {
          "indexed": false,
          "internalType": "bool",
          "name": "approved",
          "type": "bool"
        }
      ],
      "name": "ApprovalForAll",
      "type": "event"
    },
    {
      "anonymous": false,
      "inputs": [
        {
          "indexed": true,
          "internalType": "address",
          "name": "previousOwner",
          "type": "address"
        },
        {
          "indexed": true,
          "internalType": "address",
          "name": "newOwner",
          "type": "address"
        }
      ],
      "name": "OwnershipTransferred",
      "type": "event"
    },
    {
      "anonymous": false,
      "inputs": [
        {
          "indexed": true,
          "internalType": "address",
          "name": "from",
          "type": "address"
        },
        {
          "indexed": true,
          "internalType": "address",
          "name": "to",
          "type": "address"
        },
        {
          "indexed": true,
          "internalType": "uint256",
          "name": "tokenId",
          "type": "uint256"
        }
      ],
      "name": "Transfer",
      "type": "event"
    },
    {
      "inputs": [
        {
          "internalType": "address",
          "name": "to",
          "type": "address"
        },
        {
          "internalType": "uint256",
          "name": "tokenId",
          "type": "uint256"
        }
      ],
      "name": "approve",
      "outputs": [],
      "stateMutability": "nonpayable",
      "type": "function"
    },
    {
      "inputs": [
        {
          "internalType": "address",
          "name": "owner",
          "type": "address"
        }
      ],
      "name": "balanceOf",
      "outputs": [
        {
          "internalType": "uint256",
          "name": "",
          "type": "uint256"
        }
      ],
      "stateMutability": "view",
      "type": "function"
    },
    {
      "inputs": [],
      "name": "baseExtension",
      "outputs": [
        {
          "internalType": "string",
          "name": "",
          "type": "string"
        }
      ],
      "stateMutability": "view",
      "type": "function"
    },
    {
      "inputs": [],
      "name": "cost",
      "outputs": [
        {
          "internalType": "uint256",
          "name": "",
          "type": "uint256"
        }
      ],
      "stateMutability": "view",
      "type": "function"
    },
    {
      "inputs": [
        {
          "internalType": "uint256",
          "name": "tokenId",
          "type": "uint256"
        }
      ],
      "name": "getApproved",
      "outputs": [
        {
          "internalType": "address",
          "name": "",
          "type": "address"
        }
      ],
      "stateMutability": "view",
      "type": "function"
    },
    {
      "inputs": [
        {
          "internalType": "address",
          "name": "owner",
          "type": "address"
        },
        {
          "internalType": "address",
          "name": "operator",
          "type": "address"
        }
      ],
      "name": "isApprovedForAll",
      "outputs": [
        {
          "internalType": "bool",
          "name": "",
          "type": "bool"
        }
      ],
      "stateMutability": "view",
      "type": "function"
    },
    {
      "inputs": [],
      "name": "maxMintAmount",
      "outputs": [
        {
          "internalType": "uint256",
          "name": "",
          "type": "uint256"
        }
      ],
      "stateMutability": "view",
      "type": "function"
    },
    {
      "inputs": [],
      "name": "maxSupply",
      "outputs": [
        {
          "internalType": "uint256",
          "name": "",
          "type": "uint256"
        }
      ],
      "stateMutability": "view",
      "type": "function"
    },
    {
      "inputs": [
        {
          "internalType": "uint256",
          "name": "_mintAmount",
          "type": "uint256"
        }
      ],
      "name": "mint",
      "outputs": [],
      "stateMutability": "payable",
      "type": "function"
    },
    {
      "inputs": [],
      "name": "name",
      "outputs": [
        {
          "internalType": "string",
          "name": "",
          "type": "string"
        }
      ],
      "stateMutability": "view",
      "type": "function"
    },
    {
      "inputs": [],
      "name": "notRevealedUri",
      "outputs": [
        {
          "internalType": "string",
          "name": "",
          "type": "string"
        }
      ],
      "stateMutability": "view",
      "type": "function"
    },
    {
      "inputs": [],
      "name": "owner",
      "outputs": [
        {
          "internalType": "address",
          "name": "",
          "type": "address"
        }
      ],
      "stateMutability": "view",
      "type": "function"
    },
    {
      "inputs": [
        {
          "internalType": "uint256",
          "name": "tokenId",
          "type": "uint256"
        }
      ],
      "name": "ownerOf",
      "outputs": [
        {
          "internalType": "address",
          "name": "",
          "type": "address"
        }
      ],
      "stateMutability": "view",
      "type": "function"
    },
    {
      "inputs": [
        {
          "internalType": "bool",
          "name": "_state",
          "type": "bool"
        }
      ],
      "name": "pause",
      "outputs": [],
      "stateMutability": "nonpayable",
      "type": "function"
    },
    {
      "inputs": [],
      "name": "paused",
      "outputs": [
        {
          "internalType": "bool",
          "name": "",
          "type": "bool"
        }
      ],
      "stateMutability": "view",
      "type": "function"
    },
    {
      "inputs": [],
      "name": "renounceOwnership",
      "outputs": [],
      "stateMutability": "nonpayable",
      "type": "function"
    },
    {
      "inputs": [],
      "name": "reveal",
      "outputs": [],
      "stateMutability": "nonpayable",
      "type": "function"
    },
    {
      "inputs": [],
      "name": "revealed",
      "outputs": [
        {
          "internalType": "bool",
          "name": "",
          "type": "bool"
        }
      ],
      "stateMutability": "view",
      "type": "function"
    },
    {
      "inputs": [
        {
          "internalType": "address",
          "name": "from",
          "type": "address"
        },
        {
          "internalType": "address",
          "name": "to",
          "type": "address"
        },
        {
          "internalType": "uint256",
          "name": "tokenId",
          "type": "uint256"
        }
      ],
      "name": "safeTransferFrom",
      "outputs": [],
      "stateMutability": "nonpayable",
      "type": "function"
    },
    {
      "inputs": [
        {
          "internalType": "address",
          "name": "from",
          "type": "address"
        },
        {
          "internalType": "address",
          "name": "to",
          "type": "address"
        },
        {
          "internalType": "uint256",
          "name": "tokenId",
          "type": "uint256"
        },
        {
          "internalType": "bytes",
          "name": "_data",
          "type": "bytes"
        }
      ],
      "name": "safeTransferFrom",
      "outputs": [],
      "stateMutability": "nonpayable",
      "type": "function"
    },
    {
      "inputs": [
        {
          "internalType": "address",
          "name": "operator",
          "type": "address"
        },
        {
          "internalType": "bool",
          "name": "approved",
          "type": "bool"
        }
      ],
      "name": "setApprovalForAll",
      "outputs": [],
      "stateMutability": "nonpayable",
      "type": "function"
    },
    {
      "inputs": [
        {
          "internalType": "string",
          "name": "_newBaseExtension",
          "type": "string"
        }
      ],
      "name": "setBaseExtension",
      "outputs": [],
      "stateMutability": "nonpayable",
      "type": "function"
    },
    {
      "inputs": [
        {
          "internalType": "string",
          "name": "_newBaseURI",
          "type": "string"
        }
      ],
      "name": "setBaseURI",
      "outputs": [],
      "stateMutability": "nonpayable",
      "type": "function"
    },
    {
      "inputs": [
        {
          "internalType": "uint256",
          "name": "_newCost",
          "type": "uint256"
        }
      ],
      "name": "setCost",
      "outputs": [],
      "stateMutability": "nonpayable",
      "type": "function"
    },
    {
      "inputs": [
        {
          "internalType": "string",
          "name": "_notRevealedURI",
          "type": "string"
        }
      ],
      "name": "setNotRevealedURI",
      "outputs": [],
      "stateMutability": "nonpayable",
      "type": "function"
    },
    {
      "inputs": [
        {
          "internalType": "uint256",
          "name": "_newmaxMintAmount",
          "type": "uint256"
        }
      ],
      "name": "setmaxMintAmount",
      "outputs": [],
      "stateMutability": "nonpayable",
      "type": "function"
    },
    {
      "inputs": [
        {
          "internalType": "bytes4",
          "name": "interfaceId",
          "type": "bytes4"
        }
      ],
      "name": "supportsInterface",
      "outputs": [
        {
          "internalType": "bool",
          "name": "",
          "type": "bool"
        }
      ],
      "stateMutability": "view",
      "type": "function"
    },
    {
      "inputs": [],
      "name": "symbol",
      "outputs": [
        {
          "internalType": "string",
          "name": "",
          "type": "string"
        }
      ],
      "stateMutability": "view",
      "type": "function"
    },
    {
      "inputs": [
        {
          "internalType": "uint256",
          "name": "index",
          "type": "uint256"
        }
      ],
      "name": "tokenByIndex",
      "outputs": [
        {
          "internalType": "uint256",
          "name": "",
          "type": "uint256"
        }
      ],
      "stateMutability": "view",
      "type": "function"
    },
    {
      "inputs": [
        {
          "internalType": "address",
          "name": "owner",
          "type": "address"
        },
        {
          "internalType": "uint256",
          "name": "index",
          "type": "uint256"
        }
      ],
      "name": "tokenOfOwnerByIndex",
      "outputs": [
        {
          "internalType": "uint256",
          "name": "",
          "type": "uint256"
        }
      ],
      "stateMutability": "view",
      "type": "function"
    },
    {
      "inputs": [
        {
          "internalType": "uint256",
          "name": "tokenId",
          "type": "uint256"
        }
      ],
      "name": "tokenURI",
      "outputs": [
        {
          "internalType": "string",
          "name": "",
          "type": "string"
        }
      ],
      "stateMutability": "view",
      "type": "function"
    },
    {
      "inputs": [],
      "name": "totalSupply",
      "outputs": [
        {
          "internalType": "uint256",
          "name": "",
          "type": "uint256"
        }
      ],
      "stateMutability": "view",
      "type": "function"
    },
    {
      "inputs": [
        {
          "internalType": "address",
          "name": "from",
          "type": "address"
        },
        {
          "internalType": "address",
          "name": "to",
          "type": "address"
        },
        {
          "internalType": "uint256",
          "name": "tokenId",
          "type": "uint256"
        }
      ],
      "name": "transferFrom",
      "outputs": [],
      "stateMutability": "nonpayable",
      "type": "function"
    },
    {
      "inputs": [
        {
          "internalType": "address",
          "name": "newOwner",
          "type": "address"
        }
      ],
      "name": "transferOwnership",
      "outputs": [],
      "stateMutability": "nonpayable",
      "type": "function"
    },
    {
      "inputs": [
        {
          "internalType": "address",
          "name": "_owner",
          "type": "address"
        }
      ],
      "name": "walletOfOwner",
      "outputs": [
        {
          "internalType": "uint256[]",
          "name": "",
          "type": "uint256[]"
        }
      ],
      "stateMutability": "view",
      "type": "function"
    },
    {
      "inputs": [],
      "name": "withdraw",
      "outputs": [],
      "stateMutability": "payable",
      "type": "function"
    }
  ],
  "bytecode": "0x60806040526040518060400160405280600581526020017f2e6a736f6e000000000000000000000000000000000000000000000000000000815250600c90816200004a919062000ab9565b50670de0b6b3a7640000600d5561217e600e556014600f556000601060006101000a81548160ff0219169083151502179055506001601060016101000a81548160ff021916908315150217905550348015620000a557600080fd5b506040516200795c3803806200795c8339818101604052810190620000cb919062000d04565b8383620000e96725b5d40ee991515d60c01b6200027360201b60201c565b620001056744e40450c1c32f9260c01b6200027360201b60201c565b816000908162000116919062000ab9565b50620001336706b0adee5e514d2d60c01b6200027360201b60201c565b806001908162000144919062000ab9565b50505062000163679dd57d3374592a2960c01b6200027660201b60201c565b6200017f6705f0f97e02bfc10460c01b6200027660201b60201c565b6200019b67a62248b94abac3b260c01b6200027660201b60201c565b620001bb620001af6200027960201b60201c565b620002d560201b60201c565b620001d7674146c26abd3091f160c01b6200044360201b60201c565b620001f36732d0db5fe53e8cad60c01b6200044360201b60201c565b6200020f67bc2a88a81c7d790060c01b6200044360201b60201c565b62000220826200044660201b60201c565b6200023c672d23fa30961b851e60c01b6200044360201b60201c565b6200025867d43a8ca96aa5d97f60c01b6200044360201b60201c565b62000269816200060260201b60201c565b5050505062000e75565b50565b50565b60006200029767b717fbe857e1e2a860c01b620007be60201b60201c565b620002b367d3d78f4b88f690da60c01b620007be60201b60201c565b620002cf67b822e16faf11215b60c01b620007be60201b60201c565b33905090565b620002f167c2110b2721eb69c060c01b6200027660201b60201c565b6200030d67ac171b2a65fe781260c01b6200027660201b60201c565b6200032967a947848f57b984c060c01b6200027660201b60201c565b6000600a60009054906101000a900473ffffffffffffffffffffffffffffffffffffffff1690506200036c6791dc73af447900e660c01b6200027660201b60201c565b81600a60006101000a81548173ffffffffffffffffffffffffffffffffffffffff021916908373ffffffffffffffffffffffffffffffffffffffff160217905550620003c9674568a0fee1b8e53860c01b6200027660201b60201c565b620003e567a1d3f2a398bb03d060c01b6200027660201b60201c565b8173ffffffffffffffffffffffffffffffffffffffff168173ffffffffffffffffffffffffffffffffffffffff167f8be0079c531659141344cd1fd0a4f28419497f9722a3daafe3b4186f6b6457e060405160405180910390a35050565b50565b620004626702926849b0b07b8560c01b6200044360201b60201c565b6200047e67bef75c52404bc4fe60c01b6200027660201b60201c565b6200049a672ce71eaec2f8523560c01b6200027660201b60201c565b620004b667015be065dfcae83b60c01b6200027660201b60201c565b620004d267578486530c9881b660c01b6200027660201b60201c565b620004e26200027960201b60201c565b73ffffffffffffffffffffffffffffffffffffffff1662000508620007c160201b60201c565b73ffffffffffffffffffffffffffffffffffffffff161462000561576040517f08c379a0000000000000000000000000000000000000000000000000000000008152600401620005589062000e53565b60405180910390fd5b6200057d67e7b89c65ea009b4060c01b6200027660201b60201c565b6200059967b0e596074aba794a60c01b6200027660201b60201c565b620005b567bb427cb673a525e460c01b6200044360201b60201c565b620005d16735d6b18e9c4bfe6860c01b6200044360201b60201c565b620005ed6776c7595aaea3cb8060c01b6200044360201b60201c565b80600b9081620005fe919062000ab9565b5050565b6200061e6799b35e5612dd805260c01b6200044360201b60201c565b6200063a67bef75c52404bc4fe60c01b6200027660201b60201c565b62000656672ce71eaec2f8523560c01b6200027660201b60201c565b6200067267015be065dfcae83b60c01b6200027660201b60201c565b6200068e67578486530c9881b660c01b6200027660201b60201c565b6200069e6200027960201b60201c565b73ffffffffffffffffffffffffffffffffffffffff16620006c4620007c160201b60201c565b73ffffffffffffffffffffffffffffffffffffffff16146200071d576040517f08c379a0000000000000000000000000000000000000000000000000000000008152600401620007149062000e53565b60405180910390fd5b6200073967e7b89c65ea009b4060c01b6200027660201b60201c565b6200075567b0e596074aba794a60c01b6200027660201b60201c565b6200077167d0dc436ee580cceb60c01b6200044360201b60201c565b6200078d67655e99b7c99767a960c01b6200044360201b60201c565b620007a967ce54b3bfff2e412360c01b6200044360201b60201c565b8060119081620007ba919062000ab9565b5050565b50565b6000620007df67e5f7bc1bf82fba7c60c01b6200027660201b60201c565b620007fb6738bf7e57a302cf1260c01b6200027660201b60201c565b6200081767885440263ad0868460c01b6200027660201b60201c565b600a60009054906101000a900473ffffffffffffffffffffffffffffffffffffffff16905090565b600081519050919050565b7f4e487b7100000000000000000000000000000000000000000000000000000000600052604160045260246000fd5b7f4e487b7100000000000000000000000000000000000000000000000000000000600052602260045260246000fd5b60006002820490506001821680620008c157607f821691505b602082108103620008d757620008d662000879565b5b50919050565b60008190508160005260206000209050919050565b60006020601f8301049050919050565b600082821b905092915050565b600060088302620009417fffffffffffffffffffffffffffffffffffffffffffffffffffffffffffffffff8262000902565b6200094d868362000902565b95508019841693508086168417925050509392505050565b6000819050919050565b6000819050919050565b60006200099a620009946200098e8462000965565b6200096f565b62000965565b9050919050565b6000819050919050565b620009b68362000979565b620009ce620009c582620009a1565b8484546200090f565b825550505050565b600090565b620009e5620009d6565b620009f2818484620009ab565b505050565b5b8181101562000a1a5762000a0e600082620009db565b600181019050620009f8565b5050565b601f82111562000a695762000a3381620008dd565b62000a3e84620008f2565b8101602085101562000a4e578190505b62000a6662000a5d85620008f2565b830182620009f7565b50505b505050565b600082821c905092915050565b600062000a8e6000198460080262000a6e565b1980831691505092915050565b600062000aa9838362000a7b565b9150826002028217905092915050565b62000ac4826200083f565b67ffffffffffffffff81111562000ae05762000adf6200084a565b5b62000aec8254620008a8565b62000af982828562000a1e565b600060209050601f83116001811462000b31576000841562000b1c578287015190505b62000b28858262000a9b565b86555062000b98565b601f19841662000b4186620008dd565b60005b8281101562000b6b5784890151825560018201915060208501945060208101905062000b44565b8683101562000b8b578489015162000b87601f89168262000a7b565b8355505b6001600288020188555050505b505050505050565b6000604051905090565b600080fd5b600080fd5b600080fd5b600080fd5b6000601f19601f8301169050919050565b62000bda8262000bbe565b810181811067ffffffffffffffff8211171562000bfc5762000bfb6200084a565b5b80604052505050565b600062000c1162000ba0565b905062000c1f828262000bcf565b919050565b600067ffffffffffffffff82111562000c425762000c416200084a565b5b62000c4d8262000bbe565b9050602081019050919050565b60005b8381101562000c7a57808201518184015260208101905062000c5d565b60008484015250505050565b600062000c9d62000c978462000c24565b62000c05565b90508281526020810184848401111562000cbc5762000cbb62000bb9565b5b62000cc984828562000c5a565b509392505050565b600082601f83011262000ce95762000ce862000bb4565b5b815162000cfb84826020860162000c86565b91505092915050565b6000806000806080858703121562000d215762000d2062000baa565b5b600085015167ffffffffffffffff81111562000d425762000d4162000baf565b5b62000d508782880162000cd1565b945050602085015167ffffffffffffffff81111562000d745762000d7362000baf565b5b62000d828782880162000cd1565b935050604085015167ffffffffffffffff81111562000da65762000da562000baf565b5b62000db48782880162000cd1565b925050606085015167ffffffffffffffff81111562000dd85762000dd762000baf565b5b62000de68782880162000cd1565b91505092959194509250565b600082825260208201905092915050565b7f4f776e61626c653a2063616c6c6572206973206e6f7420746865206f776e6572600082015250565b600062000e3b60208362000df2565b915062000e488262000e03565b602082019050919050565b6000602082019050818103600083015262000e6e8162000e2c565b9050919050565b616ad78062000e856000396000f3fe60806040526004361061024f5760003560e01c80635c975abb11610138578063a475b5dd116100b0578063d5abeb011161007f578063e985e9c511610064578063e985e9c514610803578063f2c4ce1e14610840578063f2fde38b146108695761024f565b8063d5abeb01146107af578063da3ef23f146107da5761024f565b8063a475b5dd14610707578063b88d4fde1461071e578063c668286214610747578063c87b56dd146107725761024f565b80637f00c7a61161010757806395d89b41116100ec57806395d89b4114610697578063a0712d68146106c2578063a22cb465146106de5761024f565b80637f00c7a6146106435780638da5cb5b1461066c5761024f565b80635c975abb146105875780636352211e146105b257806370a08231146105ef578063715018a61461062c5761024f565b806323b872dd116101cb578063438b63001161019a5780634f6ccce71161017f5780634f6ccce7146104f6578063518302271461053357806355f804b31461055e5761024f565b8063438b63001461049057806344a0d68a146104cd5761024f565b806323b872dd146103f75780632f745c59146104205780633ccfd60b1461045d57806342842e0e146104675761024f565b8063081c8c441161022257806313faede61161020757806313faede61461037657806318160ddd146103a1578063239c70ae146103cc5761024f565b8063081c8c4414610322578063095ea7b31461034d5761024f565b806301ffc9a71461025457806302329a291461029157806306fdde03146102ba578063081812fc146102e5575b600080fd5b34801561026057600080fd5b5061027b600480360381019061027691906152a9565b610892565b60405161028891906152f1565b60405180910390f35b34801561029d57600080fd5b506102b860048036038101906102b39190615338565b610980565b005b3480156102c657600080fd5b506102cf610ae1565b6040516102dc91906153f5565b60405180910390f35b3480156102f157600080fd5b5061030c6004803603810190610307919061544d565b610baf565b60405161031991906154bb565b60405180910390f35b34801561032e57600080fd5b50610337610cc0565b60405161034491906153f5565b60405180910390f35b34801561035957600080fd5b50610374600480360381019061036f9190615502565b610d4e565b005b34801561038257600080fd5b5061038b610fa1565b6040516103989190615551565b60405180910390f35b3480156103ad57600080fd5b506103b6610fa7565b6040516103c39190615551565b60405180910390f35b3480156103d857600080fd5b506103e1610ff0565b6040516103ee9190615551565b60405180910390f35b34801561040357600080fd5b5061041e6004803603810190610419919061556c565b610ff6565b005b34801561042c57600080fd5b5061044760048036038101906104429190615502565b6110e2565b6040516104549190615551565b60405180910390f35b610465611213565b005b34801561047357600080fd5b5061048e6004803603810190610489919061556c565b61143b565b005b34801561049c57600080fd5b506104b760048036038101906104b291906155bf565b611497565b6040516104c491906156aa565b60405180910390f35b3480156104d957600080fd5b506104f460048036038101906104ef919061544d565b61160d565b005b34801561050257600080fd5b5061051d6004803603810190610518919061544d565b61175b565b60405161052a9190615551565b60405180910390f35b34801561053f57600080fd5b50610548611858565b60405161055591906152f1565b60405180910390f35b34801561056a57600080fd5b5061058560048036038101906105809190615801565b61186b565b005b34801561059357600080fd5b5061059c6119c2565b6040516105a991906152f1565b60405180910390f35b3480156105be57600080fd5b506105d960048036038101906105d4919061544d565b6119d5565b6040516105e691906154bb565b60405180910390f35b3480156105fb57600080fd5b50610616600480360381019061061191906155bf565b611b3b565b6040516106239190615551565b60405180910390f35b34801561063857600080fd5b50610641611c7f565b005b34801561064f57600080fd5b5061066a6004803603810190610665919061544d565b611de3565b005b34801561067857600080fd5b50610681611f31565b60405161068e91906154bb565b60405180910390f35b3480156106a357600080fd5b506106ac611f97565b6040516106b991906153f5565b60405180910390f35b6106dc60048036038101906106d7919061544d565b612065565b005b3480156106ea57600080fd5b506107056004803603810190610700919061584a565b6123c2565b005b34801561071357600080fd5b5061071c6125e2565b005b34801561072a57600080fd5b506107456004803603810190610740919061592b565b612743565b005b34801561075357600080fd5b5061075c612831565b60405161076991906153f5565b60405180910390f35b34801561077e57600080fd5b506107996004803603810190610794919061544d565b6128bf565b6040516107a691906153f5565b60405180910390f35b3480156107bb57600080fd5b506107c4612b7a565b6040516107d19190615551565b60405180910390f35b3480156107e657600080fd5b5061080160048036038101906107fc9190615801565b612b80565b005b34801561080f57600080fd5b5061082a600480360381019061082591906159ae565b612cd7565b60405161083791906152f1565b60405180910390f35b34801561084c57600080fd5b5061086760048036038101906108629190615801565b612da7565b005b34801561087557600080fd5b50610890600480360381019061088b91906155bf565b612efe565b005b60006108a8670f3f6b0086bd840660c01b613121565b6108bc67aa102f3f095f983360c01b613121565b6108d06705478a1bd9eaadc360c01b613121565b7f780e9d63000000000000000000000000000000000000000000000000000000007bffffffffffffffffffffffffffffffffffffffffffffffffffffffff1916827bffffffffffffffffffffffffffffffffffffffffffffffffffffffff191614801561094d575061094c6721979f22f917d94360c01b613124565b5b80610979575061095c8261312f565b8015610978575061097767bc05f391422946e260c01b613124565b5b5b9050919050565b610994672160ce4328dcc98d60c01b6132bd565b6109a867bef75c52404bc4fe60c01b6132c0565b6109bc672ce71eaec2f8523560c01b6132c0565b6109d067015be065dfcae83b60c01b6132c0565b6109e467578486530c9881b660c01b6132c0565b6109ec6132c3565b73ffffffffffffffffffffffffffffffffffffffff16610a0a611f31565b73ffffffffffffffffffffffffffffffffffffffff1614610a60576040517f08c379a0000000000000000000000000000000000000000000000000000000008152600401610a5790615a3a565b60405180910390fd5b610a7467e7b89c65ea009b4060c01b6132c0565b610a8867b0e596074aba794a60c01b6132c0565b610a9c675efe197b3b0c0df160c01b6132bd565b610ab0673e9dc72582ef522c60c01b6132bd565b610ac467b640567e1463e57f60c01b6132bd565b80601060006101000a81548160ff02191690831515021790555050565b6060610af767f8e62c6ceee463f360c01b613307565b610b0b6707df9b30bc79afd360c01b613307565b610b1f67bd1688b64efcc93360c01b613307565b60008054610b2c90615a89565b80601f0160208091040260200160405190810160405280929190818152602001828054610b5890615a89565b8015610ba55780601f10610b7a57610100808354040283529160200191610ba5565b820191906000526020600020905b815481529060010190602001808311610b8857829003601f168201915b5050505050905090565b6000610bc567c3eec0f0f4d3103560c01b613307565b610bd96788a9c3e69fc7fb6860c01b613307565b610bed67fbf1fdee66f556d460c01b613307565b610c016790174856828a9e9f60c01b613307565b610c0a8261330a565b610c49576040517f08c379a0000000000000000000000000000000000000000000000000000000008152600401610c4090615b2c565b60405180910390fd5b610c5d67fe389b0ae531388560c01b613307565b610c716725147a3a2c85bb0d60c01b613307565b610c8567b1b6bcbf320fe76c60c01b613307565b6004600083815260200190815260200160002060009054906101000a900473ffffffffffffffffffffffffffffffffffffffff169050919050565b60118054610ccd90615a89565b80601f0160208091040260200160405190810160405280929190818152602001828054610cf990615a89565b8015610d465780601f10610d1b57610100808354040283529160200191610d46565b820191906000526020600020905b815481529060010190602001808311610d2957829003601f168201915b505050505081565b610d6267e3863516d1d3e23560c01b613307565b610d766788c14150ca3abfee60c01b613307565b610d8a67e5117e90154b6d8860c01b613307565b6000610d95826119d5565b9050610dab67764f91a5b2d1ae4060c01b613307565b610dbf67994d98747547b0a560c01b613307565b610dd367a8938fb2ff597d9e60c01b613307565b8073ffffffffffffffffffffffffffffffffffffffff168373ffffffffffffffffffffffffffffffffffffffff1603610e41576040517f08c379a0000000000000000000000000000000000000000000000000000000008152600401610e3890615bbe565b60405180910390fd5b610e556723b36b0296335b8960c01b613307565b610e6967e719a780b49ac66f60c01b613307565b610e7d67ec3a744c32b0fe6e60c01b613307565b610e9167d201b7e411ac751f60c01b613307565b8073ffffffffffffffffffffffffffffffffffffffff16610eb06132c3565b73ffffffffffffffffffffffffffffffffffffffff16148015610ee35750610ee26786b6b6330076999f60c01b6133b3565b5b80610f175750610efa81610ef56132c3565b612cd7565b8015610f165750610f1567c4cb0ed236139ae860c01b6133b3565b5b5b610f56576040517f08c379a0000000000000000000000000000000000000000000000000000000008152600401610f4d90615c50565b60405180910390fd5b610f6a67a9f8ee897c1188c660c01b613307565b610f7e6769103351434ceab760c01b613307565b610f9267c08bc9f60dc7befe60c01b613307565b610f9c83836133be565b505050565b600d5481565b6000610fbd67d8e9a69efe0abe1b60c01b613121565b610fd167e3ba2be2d115374f60c01b613121565b610fe567b1b6ebaf1a77437060c01b613121565b600880549050905090565b600f5481565b61100a67d9fdd63ac06b802a60c01b613307565b61101e6714b0ba6f54515e3260c01b613307565b61103267308f6f3332824a3560c01b613307565b61104667189a6471b346e4f860c01b613307565b6110576110516132c3565b826134c7565b611096576040517f08c379a000000000000000000000000000000000000000000000000000000000815260040161108d90615ce2565b60405180910390fd5b6110aa67dead1caeeb38d86a60c01b613307565b6110be674c8177b6f9be784a60c01b613307565b6110d2671226c70106f7cea760c01b613307565b6110dd8383836136c9565b505050565b60006110f867ac8f8501052e8d0c60c01b613121565b61110c676e8d8824dd311c9d60c01b613121565b611120677ec1d79f3c9f8e3960c01b613121565b61113467315f6845f5c0b4f260c01b613121565b61113d83611b3b565b821061117e576040517f08c379a000000000000000000000000000000000000000000000000000000000815260040161117590615d74565b60405180910390fd5b611192677fd50e58fb7a0ca960c01b613121565b6111a667128b10315eddd8f360c01b613121565b6111ba67f16f219f249b27a560c01b613121565b600660008473ffffffffffffffffffffffffffffffffffffffff1673ffffffffffffffffffffffffffffffffffffffff168152602001908152602001600020600083815260200190815260200160002054905092915050565b611227672a719e79fd93dd2f60c01b6132bd565b61123b67bef75c52404bc4fe60c01b6132c0565b61124f672ce71eaec2f8523560c01b6132c0565b61126367015be065dfcae83b60c01b6132c0565b61127767578486530c9881b660c01b6132c0565b61127f6132c3565b73ffffffffffffffffffffffffffffffffffffffff1661129d611f31565b73ffffffffffffffffffffffffffffffffffffffff16146112f3576040517f08c379a00000000000000000000000000000000000000000000000000000000081526004016112ea90615a3a565b60405180910390fd5b61130767e7b89c65ea009b4060c01b6132c0565b61131b67b0e596074aba794a60c01b6132c0565b61132f67ae0e130ab96240d760c01b6132bd565b61134367b7115b7ace71487f60c01b6132bd565b61135767f62c49cb000a35d760c01b6132bd565b61136b671cf5b6e58ebd255060c01b6132bd565b6000611375611f31565b73ffffffffffffffffffffffffffffffffffffffff164760405161139890615dc5565b60006040518083038185875af1925050503d80600081146113d5576040519150601f19603f3d011682016040523d82523d6000602084013e6113da565b606091505b505090506113f267d876f6501e42c94860c01b6132bd565b61140667e05be84542dd79fb60c01b6132bd565b61141a674a5983afb3710a7a60c01b6132bd565b8061142457600080fd5b611438675c2ea987ce0e127760c01b6132bd565b50565b61144f676c075a4390a9475d60c01b613307565b61146367a73e9e1a1deb564060c01b613307565b61147767db7d8c9750338ddc60c01b613307565b61149283838360405180602001604052806000815250612743565b505050565b60606114ad6768aa1ac014c5c07160c01b6132bd565b6114c16743d1d638682c372d60c01b6132bd565b6114d5676355939df0b30de960c01b6132bd565b60006114e083611b3b565b90506114f667f07e15452eb33cc060c01b6132bd565b61150a675f542b64b5938e3560c01b6132bd565b60008167ffffffffffffffff811115611526576115256156d6565b5b6040519080825280602002602001820160405280156115545781602001602082028036833780820191505090505b50905061156b67d5a86469707f395c60c01b6132bd565b61157f6745f179a33299df5e60c01b6132bd565b60005b828110156115da5761159e67d794fda8cb7d6f4060c01b6132bd565b6115a885826110e2565b8282815181106115bb576115ba615dda565b5b60200260200101818152505080806115d290615e38565b915050611582565b506115ef6783bff8b6eb9c5c4360c01b6132bd565b611603670f315ab385c286dd60c01b6132bd565b8092505050919050565b611621671ba41f6e7a2f773560c01b6132bd565b61163567bef75c52404bc4fe60c01b6132c0565b611649672ce71eaec2f8523560c01b6132c0565b61165d67015be065dfcae83b60c01b6132c0565b61167167578486530c9881b660c01b6132c0565b6116796132c3565b73ffffffffffffffffffffffffffffffffffffffff16611697611f31565b73ffffffffffffffffffffffffffffffffffffffff16146116ed576040517f08c379a00000000000000000000000000000000000000000000000000000000081526004016116e490615a3a565b60405180910390fd5b61170167e7b89c65ea009b4060c01b6132c0565b61171567b0e596074aba794a60c01b6132c0565b6117296711450331214d0b2960c01b6132bd565b61173d675d465d4f4661ebb760c01b6132bd565b61175167092d6e9f77398d2d60c01b6132bd565b80600d8190555050565b600061177167a4d67096daf8345060c01b613121565b61178567d5dd903cb782a5ca60c01b613121565b61179967f72063898eb1524460c01b613121565b6117ad6705e072cc51d1a63760c01b613121565b6117b5610fa7565b82106117f6576040517f08c379a00000000000000000000000000000000000000000000000000000000081526004016117ed90615ef2565b60405180910390fd5b61180a67731e0bc3ba899d3960c01b613121565b61181e67ca2100ca43f0ddf960c01b613121565b611832670996b8a9972ce50160c01b613121565b6008828154811061184657611845615dda565b5b90600052602060002001549050919050565b601060019054906101000a900460ff1681565b61187f6702926849b0b07b8560c01b6132bd565b61189367bef75c52404bc4fe60c01b6132c0565b6118a7672ce71eaec2f8523560c01b6132c0565b6118bb67015be065dfcae83b60c01b6132c0565b6118cf67578486530c9881b660c01b6132c0565b6118d76132c3565b73ffffffffffffffffffffffffffffffffffffffff166118f5611f31565b73ffffffffffffffffffffffffffffffffffffffff161461194b576040517f08c379a000000000000000000000000000000000000000000000000000000000815260040161194290615a3a565b60405180910390fd5b61195f67e7b89c65ea009b4060c01b6132c0565b61197367b0e596074aba794a60c01b6132c0565b61198767bb427cb673a525e460c01b6132bd565b61199b6735d6b18e9c4bfe6860c01b6132bd565b6119af6776c7595aaea3cb8060c01b6132bd565b80600b90816119be91906160be565b5050565b601060009054906101000a900460ff1681565b60006119eb673552be009641475c60c01b613307565b6119ff67b8b1da3e1ac246a160c01b613307565b611a1367b52d0db6ca340bf760c01b613307565b60006002600084815260200190815260200160002060009054906101000a900473ffffffffffffffffffffffffffffffffffffffff169050611a5f6734ccf0c4346254f260c01b613307565b611a7367bfb7b45eb0fe0dae60c01b613307565b611a87677534bf1f2453af6260c01b613307565b600073ffffffffffffffffffffffffffffffffffffffff168173ffffffffffffffffffffffffffffffffffffffff1603611af6576040517f08c379a0000000000000000000000000000000000000000000000000000000008152600401611aed90616202565b60405180910390fd5b611b0a672fd01be4673079a660c01b613307565b611b1e673823c2c036b45ed560c01b613307565b611b3267645a50976256054a60c01b613307565b80915050919050565b6000611b5167f682ced3fe57501060c01b613307565b611b65676493bd4ba02ae4ce60c01b613307565b611b796729aa54a216539be060c01b613307565b611b8d67568d556c36a7d54d60c01b613307565b600073ffffffffffffffffffffffffffffffffffffffff168273ffffffffffffffffffffffffffffffffffffffff1603611bfc576040517f08c379a0000000000000000000000000000000000000000000000000000000008152600401611bf390616294565b60405180910390fd5b611c1067b145e169115d318f60c01b613307565b611c24677e1d49f362beca3160c01b613307565b611c3867df5cb7a04434ea0e60c01b613307565b600360008373ffffffffffffffffffffffffffffffffffffffff1673ffffffffffffffffffffffffffffffffffffffff168152602001908152602001600020549050919050565b611c9367f0664779342f50c860c01b6132c0565b611ca767bef75c52404bc4fe60c01b6132c0565b611cbb672ce71eaec2f8523560c01b6132c0565b611ccf67015be065dfcae83b60c01b6132c0565b611ce367578486530c9881b660c01b6132c0565b611ceb6132c3565b73ffffffffffffffffffffffffffffffffffffffff16611d09611f31565b73ffffffffffffffffffffffffffffffffffffffff1614611d5f576040517f08c379a0000000000000000000000000000000000000000000000000000000008152600401611d5690615a3a565b60405180910390fd5b611d7367e7b89c65ea009b4060c01b6132c0565b611d8767b0e596074aba794a60c01b6132c0565b611d9b67f72618d682b8480a60c01b6132c0565b611daf676a7fd121463bf04f60c01b6132c0565b611dc367cf595693ef15796c60c01b6132c0565b611dd7678904788fbaeffefc60c01b6132c0565b611de16000613a8c565b565b611df76786e152c27c7fbcd760c01b6132bd565b611e0b67bef75c52404bc4fe60c01b6132c0565b611e1f672ce71eaec2f8523560c01b6132c0565b611e3367015be065dfcae83b60c01b6132c0565b611e4767578486530c9881b660c01b6132c0565b611e4f6132c3565b73ffffffffffffffffffffffffffffffffffffffff16611e6d611f31565b73ffffffffffffffffffffffffffffffffffffffff1614611ec3576040517f08c379a0000000000000000000000000000000000000000000000000000000008152600401611eba90615a3a565b60405180910390fd5b611ed767e7b89c65ea009b4060c01b6132c0565b611eeb67b0e596074aba794a60c01b6132c0565b611eff6736e80fa3b2b7aaa960c01b6132bd565b611f136701f7c30975e51ec460c01b6132bd565b611f276795b0c190fe440c8460c01b6132bd565b80600f8190555050565b6000611f4767e5f7bc1bf82fba7c60c01b6132c0565b611f5b6738bf7e57a302cf1260c01b6132c0565b611f6f67885440263ad0868460c01b6132c0565b600a60009054906101000a900473ffffffffffffffffffffffffffffffffffffffff16905090565b6060611fad67b220d7d46f3adc1560c01b613307565b611fc16741c992c1fc17064e60c01b613307565b611fd567292d5620117106ed60c01b613307565b60018054611fe290615a89565b80601f016020809104026020016040519081016040528092919081815260200182805461200e90615a89565b801561205b5780601f106120305761010080835404028352916020019161205b565b820191906000526020600020905b81548152906001019060200180831161203e57829003601f168201915b5050505050905090565b61207967a3620ffe324eb29260c01b6132bd565b61208d676fc99dbf013a464f60c01b6132bd565b6120a1670b962bd62511d81f60c01b6132bd565b60006120ab610fa7565b90506120c16752f86eac3c7ee19860c01b6132bd565b6120d567c2f95084a6166a1660c01b6132bd565b6120e9671b22533e835093da60c01b6132bd565b601060009054906101000a900460ff161561210357600080fd5b61211767c89e8968a05b223760c01b6132bd565b61212b674acd1ee19740d2dc60c01b6132bd565b61213f677c67a92a5249ea9560c01b6132bd565b61215367b3f31fea464e11ec60c01b6132bd565b6000821161216057600080fd5b61217467ed4622d249eae04860c01b6132bd565b612188675d2d3c0b7c2a7ec460c01b6132bd565b61219c6726027e594040914e60c01b6132bd565b6121b067fb5b58bfa966203f60c01b6132bd565b600f548211156121bf57600080fd5b6121d367a029573f0188f06a60c01b6132bd565b6121e767cede9210ba7175fc60c01b6132bd565b6121fb6767d6d5a5d69ed7c460c01b6132bd565b61220f67469bd5550f3604ef60c01b6132bd565b600e54828261221e91906162b4565b111561222957600080fd5b61223d67cbaf0cf266834b8e60c01b6132bd565b61225167fe437e8db56ecc4760c01b6132bd565b61226567948e29f7296525f860c01b6132bd565b61226d611f31565b73ffffffffffffffffffffffffffffffffffffffff163373ffffffffffffffffffffffffffffffffffffffff1614612322576122b367b745a2db106e77c560c01b6132bd565b6122c767471487f645dc2dd560c01b6132bd565b6122db67adba2807fe657e9d60c01b6132bd565b6122ef677fb5d2fd8da1e89f60c01b6132bd565b81600d546122fd91906162e8565b34101561230957600080fd5b61231d67b981caccb1a30bfb60c01b6132bd565b612337565b612336676b8e1262fae055af60c01b6132bd565b5b61234b67f09083c10e47af1160c01b6132bd565b61235f67ed89f0b708220dc460c01b6132bd565b6000600190505b8281116123bd57612381678e28d00ea8a3d4c860c01b6132bd565b61239567ad631c97716373c960c01b6132bd565b6123aa3382846123a591906162b4565b613bca565b80806123b590615e38565b915050612366565b505050565b6123d667a349dc8c01e6f56e60c01b613307565b6123ea678b4d23ecb5986a4760c01b613307565b6123fe67694b2d1e1766058160c01b613307565b61241267032a1bd868e08f8060c01b613307565b61241a6132c3565b73ffffffffffffffffffffffffffffffffffffffff168273ffffffffffffffffffffffffffffffffffffffff1603612487576040517f08c379a000000000000000000000000000000000000000000000000000000000815260040161247e90616376565b60405180910390fd5b61249b671cd096ab41a82b8660c01b613307565b6124af67b8ec5ec2dd2d70e160c01b613307565b80600560006124bc6132c3565b73ffffffffffffffffffffffffffffffffffffffff1673ffffffffffffffffffffffffffffffffffffffff16815260200190815260200160002060008473ffffffffffffffffffffffffffffffffffffffff1673ffffffffffffffffffffffffffffffffffffffff16815260200190815260200160002060006101000a81548160ff02191690831515021790555061255e67458e08bb9dbd3d8860c01b613307565b61257267b9ef57f33419724860c01b613307565b8173ffffffffffffffffffffffffffffffffffffffff166125916132c3565b73ffffffffffffffffffffffffffffffffffffffff167f17307eab39ab6107e8899845ad3d59bd9653f200f220920489ca2b5937696c31836040516125d691906152f1565b60405180910390a35050565b6125f667f96c0c36e15ee1e160c01b6132bd565b61260a67bef75c52404bc4fe60c01b6132c0565b61261e672ce71eaec2f8523560c01b6132c0565b61263267015be065dfcae83b60c01b6132c0565b61264667578486530c9881b660c01b6132c0565b61264e6132c3565b73ffffffffffffffffffffffffffffffffffffffff1661266c611f31565b73ffffffffffffffffffffffffffffffffffffffff16146126c2576040517f08c379a00000000000000000000000000000000000000000000000000000000081526004016126b990615a3a565b60405180910390fd5b6126d667e7b89c65ea009b4060c01b6132c0565b6126ea67b0e596074aba794a60c01b6132c0565b6126fe67e92328f715f7e3b060c01b6132bd565b6127126769326252e8514e3b60c01b6132bd565b6127266717579174455dbb5c60c01b6132bd565b6001601060016101000a81548160ff021916908315150217905550565b6127576799312f879047e48760c01b613307565b61276b67fdede2ea4621ce7660c01b613307565b61277f67ba784141b526568060c01b613307565b61279367c9d2adf0e4ee174160c01b613307565b6127a461279e6132c3565b836134c7565b6127e3576040517f08c379a00000000000000000000000000000000000000000000000000000000081526004016127da90615ce2565b60405180910390fd5b6127f7677689e574d068368e60c01b613307565b61280b67eed65281d8c2955060c01b613307565b61281f67c86dee77cf39ac3460c01b613307565b61282b84848484613c24565b50505050565b600c805461283e90615a89565b80601f016020809104026020016040519081016040528092919081815260200182805461286a90615a89565b80156128b75780601f1061288c576101008083540402835291602001916128b7565b820191906000526020600020905b81548152906001019060200180831161289a57829003601f168201915b505050505081565b60606128d56730887093b4098a2260c01b6132bd565b6128e9674d2d814573b1e71260c01b6132bd565b6128fd67aa421bd61f0691cd60c01b6132bd565b61291167b363221f0b7f517960c01b6132bd565b61291a8261330a565b612959576040517f08c379a000000000000000000000000000000000000000000000000000000000815260040161295090616408565b60405180910390fd5b61296d672295237aa5cb47e560c01b6132bd565b61298167a314aa5cd6fc89b460c01b6132bd565b61299567905a234cb8f402de60c01b6132bd565b60001515601060019054906101000a900460ff16151503612a7e576129c467127691577ea41f0960c01b6132bd565b6129d867b2aec3d9de7220dc60c01b6132bd565b6129ec67e5271d7b84051d2a60c01b6132bd565b601180546129f990615a89565b80601f0160208091040260200160405190810160405280929190818152602001828054612a2590615a89565b8015612a725780601f10612a4757610100808354040283529160200191612a72565b820191906000526020600020905b815481529060010190602001808311612a5557829003601f168201915b50505050509050612b75565b612a92670b1bd5c55ca3267060c01b6132bd565b612aa6679ff30dd424c725a260c01b6132bd565b612aba67e06549f967a9d57060c01b6132bd565b6000612ac4613d0c565b9050612ada67a43a8a57e7dba5cb60c01b6132bd565b612aee671cc2653e67ff7f2760c01b6132bd565b600081511180612b0e5750612b0d6725cd03c5c0fb780860c01b613dda565b5b8015612b2a5750612b2967e82e233c99a67b6360c01b613de1565b5b612b435760405180602001604052806000815250612b71565b80612b4d84613dec565b600c604051602001612b61939291906164e7565b6040516020818303038152906040525b9150505b919050565b600e5481565b612b94677302dff412854bcb60c01b6132bd565b612ba867bef75c52404bc4fe60c01b6132c0565b612bbc672ce71eaec2f8523560c01b6132c0565b612bd067015be065dfcae83b60c01b6132c0565b612be467578486530c9881b660c01b6132c0565b612bec6132c3565b73ffffffffffffffffffffffffffffffffffffffff16612c0a611f31565b73ffffffffffffffffffffffffffffffffffffffff1614612c60576040517f08c379a0000000000000000000000000000000000000000000000000000000008152600401612c5790615a3a565b60405180910390fd5b612c7467e7b89c65ea009b4060c01b6132c0565b612c8867b0e596074aba794a60c01b6132c0565b612c9c6766ba47156779bf5960c01b6132bd565b612cb067d9f5f75e5507521860c01b6132bd565b612cc467f2238349723bf5c960c01b6132bd565b80600c9081612cd391906160be565b5050565b6000612ced67398cf0ea72b1f61f60c01b613307565b612d01676529799c015cf8b760c01b613307565b612d1567317a97bb46acf78360c01b613307565b600560008473ffffffffffffffffffffffffffffffffffffffff1673ffffffffffffffffffffffffffffffffffffffff16815260200190815260200160002060008373ffffffffffffffffffffffffffffffffffffffff1673ffffffffffffffffffffffffffffffffffffffff16815260200190815260200160002060009054906101000a900460ff16905092915050565b612dbb6799b35e5612dd805260c01b6132bd565b612dcf67bef75c52404bc4fe60c01b6132c0565b612de3672ce71eaec2f8523560c01b6132c0565b612df767015be065dfcae83b60c01b6132c0565b612e0b67578486530c9881b660c01b6132c0565b612e136132c3565b73ffffffffffffffffffffffffffffffffffffffff16612e31611f31565b73ffffffffffffffffffffffffffffffffffffffff1614612e87576040517f08c379a0000000000000000000000000000000000000000000000000000000008152600401612e7e90615a3a565b60405180910390fd5b612e9b67e7b89c65ea009b4060c01b6132c0565b612eaf67b0e596074aba794a60c01b6132c0565b612ec367d0dc436ee580cceb60c01b6132bd565b612ed767655e99b7c99767a960c01b6132bd565b612eeb67ce54b3bfff2e412360c01b6132bd565b8060119081612efa91906160be565b5050565b612f12675178a40fbfa3833a60c01b6132c0565b612f2667bef75c52404bc4fe60c01b6132c0565b612f3a672ce71eaec2f8523560c01b6132c0565b612f4e67015be065dfcae83b60c01b6132c0565b612f6267578486530c9881b660c01b6132c0565b612f6a6132c3565b73ffffffffffffffffffffffffffffffffffffffff16612f88611f31565b73ffffffffffffffffffffffffffffffffffffffff1614612fde576040517f08c379a0000000000000000000000000000000000000000000000000000000008152600401612fd590615a3a565b60405180910390fd5b612ff267e7b89c65ea009b4060c01b6132c0565b61300667b0e596074aba794a60c01b6132c0565b61301a67e900890921ccb24260c01b6132c0565b61302e67be6638d87cb734d760c01b6132c0565b61304267a143bd9c6360cdec60c01b6132c0565b61305667560b974bfe0703d660c01b6132c0565b61306a673a253e8c7bf22d1260c01b6132c0565b600073ffffffffffffffffffffffffffffffffffffffff168173ffffffffffffffffffffffffffffffffffffffff16036130d9576040517f08c379a00000000000000000000000000000000000000000000000000000000081526004016130d09061658a565b60405180910390fd5b6130ed67c18bc335e4edea0560c01b6132c0565b613101674002373033901c0c60c01b6132c0565b613115677ad64d03def992cb60c01b6132c0565b61311e81613a8c565b50565b50565b600060019050919050565b60006131456759f419f78b2a50c660c01b613307565b6131596730b01d1372f21d2360c01b613307565b61316d67b796180b1475f48160c01b613307565b7f80ac58cd000000000000000000000000000000000000000000000000000000007bffffffffffffffffffffffffffffffffffffffffffffffffffffffff1916827bffffffffffffffffffffffffffffffffffffffffffffffffffffffff19161480156131ea57506131e967ad83188552ae5a5160c01b6133b3565b5b8061328a57507f5b5e139f000000000000000000000000000000000000000000000000000000007bffffffffffffffffffffffffffffffffffffffffffffffffffffffff1916827bffffffffffffffffffffffffffffffffffffffffffffffffffffffff191614801561326d575061326c672c4fbb38887bdfc460c01b6133b3565b5b801561328957506132886772cc92381aabaece60c01b6133b3565b5b5b806132b657506132998261412c565b80156132b557506132b467f3317b2a452ba0ae60c01b6133b3565b5b5b9050919050565b50565b50565b60006132d967b717fbe857e1e2a860c01b6141d2565b6132ed67d3d78f4b88f690da60c01b6141d2565b61330167b822e16faf11215b60c01b6141d2565b33905090565b50565b600061332067eb11184caf25463a60c01b613307565b61333467edc7be07f37e2fed60c01b613307565b613348673eefe8fd25b4fa3560c01b613307565b600073ffffffffffffffffffffffffffffffffffffffff166002600084815260200190815260200160002060009054906101000a900473ffffffffffffffffffffffffffffffffffffffff1673ffffffffffffffffffffffffffffffffffffffff1614159050919050565b600060019050919050565b6133d267d1ad7e60344dc1d260c01b613307565b6133e6675a8e0baaacad107860c01b613307565b816004600083815260200190815260200160002060006101000a81548173ffffffffffffffffffffffffffffffffffffffff021916908373ffffffffffffffffffffffffffffffffffffffff16021790555061344c67de91d65ac8a18d3c60c01b613307565b6134606714502331727c1ab060c01b613307565b808273ffffffffffffffffffffffffffffffffffffffff16613481836119d5565b73ffffffffffffffffffffffffffffffffffffffff167f8c5be1e5ebec7d5bd14f71427d1e84f3dd0314c0f7b2291e5b200ac8c7c3b92560405160405180910390a45050565b60006134dd67d3a9b69347dace5e60c01b613307565b6134f167f1f0a36ec86e3dcd60c01b613307565b61350567443685240218e55060c01b613307565b61351967e71e0b516a83afd260c01b613307565b6135228261330a565b613561576040517f08c379a00000000000000000000000000000000000000000000000000000000081526004016135589061661c565b60405180910390fd5b613575674b88fe74b9088e0e60c01b613307565b6135896712df6a50743afcbd60c01b613307565b61359d6730583b7a0eb9f47960c01b613307565b60006135a8836119d5565b90506135be67e2f03784d04de3af60c01b613307565b6135d267f21e37893b81585d60c01b613307565b8073ffffffffffffffffffffffffffffffffffffffff168473ffffffffffffffffffffffffffffffffffffffff1614801561361d575061361c67e4f42375d0973d0260c01b6133b3565b5b8061369357508373ffffffffffffffffffffffffffffffffffffffff1661364384610baf565b73ffffffffffffffffffffffffffffffffffffffff161480156136765750613675671add74748f1ebb7960c01b6133b3565b5b8015613692575061369167188d05fbb956d3f360c01b6133b3565b5b5b806136c057506136a38185612cd7565b80156136bf57506136be67c5deedd3f731768a60c01b6133b3565b5b5b91505092915050565b6136dd67bd5772fc71e4aa0160c01b613307565b6136f167b1b742fff0cec51a60c01b613307565b61370567406a3a47a4cec61b60c01b613307565b61371967d6e777523202426860c01b613307565b8273ffffffffffffffffffffffffffffffffffffffff16613739826119d5565b73ffffffffffffffffffffffffffffffffffffffff161461378f576040517f08c379a0000000000000000000000000000000000000000000000000000000008152600401613786906166ae565b60405180910390fd5b6137a367d9e62723eb9ee2f260c01b613307565b6137b76778f965c27f820df260c01b613307565b6137cb677a678b62507a8a1d60c01b613307565b6137df6776cc5c861df8f78d60c01b613307565b600073ffffffffffffffffffffffffffffffffffffffff168273ffffffffffffffffffffffffffffffffffffffff160361384e576040517f08c379a000000000000000000000000000000000000000000000000000000000815260040161384590616740565b60405180910390fd5b6138626731e604af33a63cfb60c01b613307565b61387667023852e160b055e560c01b613307565b61388a67c74e6dfe0c80835f60c01b613307565b6138958383836141d5565b6138a967ed4a330809413d4360c01b613307565b6138bd679d0ac142afad804d60c01b613307565b6138c86000826133be565b6138dc67c1f65a3a5a543a6c60c01b613307565b6001600360008573ffffffffffffffffffffffffffffffffffffffff1673ffffffffffffffffffffffffffffffffffffffff168152602001908152602001600020600082825461392c9190616760565b9250508190555061394767e86603d62b6b6c0560c01b613307565b6001600360008473ffffffffffffffffffffffffffffffffffffffff1673ffffffffffffffffffffffffffffffffffffffff168152602001908152602001600020600082825461399791906162b4565b925050819055506139b267d91ba07864f047ad60c01b613307565b816002600083815260200190815260200160002060006101000a81548173ffffffffffffffffffffffffffffffffffffffff021916908373ffffffffffffffffffffffffffffffffffffffff160217905550613a186779ab94938275d57f60c01b613307565b613a2c67e791182486b5801e60c01b613307565b808273ffffffffffffffffffffffffffffffffffffffff168473ffffffffffffffffffffffffffffffffffffffff167fddf252ad1be2c89b69c2b068fc378daa952ba7f163c4a11628f55a4df523b3ef60405160405180910390a4505050565b613aa067c2110b2721eb69c060c01b6132c0565b613ab467ac171b2a65fe781260c01b6132c0565b613ac867a947848f57b984c060c01b6132c0565b6000600a60009054906101000a900473ffffffffffffffffffffffffffffffffffffffff169050613b036791dc73af447900e660c01b6132c0565b81600a60006101000a81548173ffffffffffffffffffffffffffffffffffffffff021916908373ffffffffffffffffffffffffffffffffffffffff160217905550613b58674568a0fee1b8e53860c01b6132c0565b613b6c67a1d3f2a398bb03d060c01b6132c0565b8173ffffffffffffffffffffffffffffffffffffffff168173ffffffffffffffffffffffffffffffffffffffff167f8be0079c531659141344cd1fd0a4f28419497f9722a3daafe3b4186f6b6457e060405160405180910390a35050565b613bde678a5f29b0dd5b0e8560c01b613307565b613bf267e2717e025990532460c01b613307565b613c06675f02c8f2beda386760c01b613307565b613c208282604051806020016040528060008152506144e5565b5050565b613c3867ca029a2c75752ab760c01b613307565b613c4c6751de351ef743db5660c01b613307565b613c6067331e46f88e0a589060c01b613307565b613c6b8484846136c9565b613c7f67ae5376d8c39a694960c01b613307565b613c9367561324ec86a4a0dc60c01b613307565b613ca7675b065b28f388da0660c01b613307565b613cb3848484846145cc565b613cf2576040517f08c379a0000000000000000000000000000000000000000000000000000000008152600401613ce990616806565b60405180910390fd5b613d0667a75ea15463ee30fa60c01b613307565b50505050565b6060613d226734b4f1d86fd3ddda60c01b6132bd565b613d3667362eb9383cb35b6060c01b6132bd565b613d4a674d967f5e8491a96a60c01b6132bd565b600b8054613d5790615a89565b80601f0160208091040260200160405190810160405280929190818152602001828054613d8390615a89565b8015613dd05780601f10613da557610100808354040283529160200191613dd0565b820191906000526020600020905b815481529060010190602001808311613db357829003601f168201915b5050505050905090565b6000919050565b600060019050919050565b6060613e02675cf7b1ef7e5b43f260c01b6148bb565b613e16679686ca6e888d0de160c01b6148bb565b613e2a6788b5c6f07771cae260c01b6148bb565b60008203613eab57613e4667bf913bb7d3d17d1f60c01b6148bb565b613e5a67132583419d38347f60c01b6148bb565b613e6e677d1498e652a383b660c01b6148bb565b6040518060400160405280600181526020017f30000000000000000000000000000000000000000000000000000000000000008152509050614127565b613ebf674836a4c707c533ef60c01b6148bb565b613ed36744611d8ce38862ef60c01b6148bb565b613ee767a7a23857d741bf9760c01b6148bb565b6000829050613f00678b8ff11cbec56d5160c01b6148bb565b613f14676ae72f1061b198bd60c01b6148bb565b6000613f2a672b95e9db6bd4da7760c01b6148bb565b613f3e676f3224cb92a2758060c01b6148bb565b5b60008214613f9157613f5b67708635ec9d62ca5c60c01b6148bb565b8080613f6690615e38565b915050613f7d67499be7d95cc6377960c01b6148bb565b600a82613f8a9190616855565b9150613f3f565b613fa5674cf5cd5673a7d75560c01b6148bb565b613fb967daee2c0e3466b3c760c01b6148bb565b60008167ffffffffffffffff811115613fd557613fd46156d6565b5b6040519080825280601f01601f1916602001820160405280156140075781602001600182028036833780820191505090505b50905061401e676a19ea416747513f60c01b6148bb565b614032676882cd3922d0bc4e60c01b6148bb565b5b600085146140f85761404f67b7870b8bfc5d878d60c01b6148bb565b60018261405c9190616760565b915061407267e68f28eafe2f249860c01b6148bb565b600a8561407f9190616886565b603061408b91906162b4565b60f81b8183815181106140a1576140a0615dda565b5b60200101907effffffffffffffffffffffffffffffffffffffffffffffffffffffffffffff1916908160001a9053506140e467bdaf6f2d25de053a60c01b6148bb565b600a856140f19190616855565b9450614033565b61410c671a484a5611110bc360c01b6148bb565b614120675089bcf0369747d960c01b6148bb565b8093505050505b919050565b600061414267ff9862971fbceef660c01b6148be565b6141566767ed0e713b70eeef60c01b6148be565b61416a67f0ff9e64f901689460c01b6148be565b7f01ffc9a7000000000000000000000000000000000000000000000000000000007bffffffffffffffffffffffffffffffffffffffffffffffffffffffff1916827bffffffffffffffffffffffffffffffffffffffffffffffffffffffff1916149050919050565b50565b6141e967b98cc6efb3be1ace60c01b613121565b6141fd67283cfaf6f915f78860c01b613121565b61421167aa6e1e055f82572460c01b613121565b61421c8383836148c1565b6142306797f68fcf3321752d60c01b613121565b61424467f0a50c7dbc4fe01860c01b613121565b600073ffffffffffffffffffffffffffffffffffffffff168373ffffffffffffffffffffffffffffffffffffffff16036142c25761428c67ca6659578a52662e60c01b613121565b6142a0671c8922971058c56560c01b613121565b6142b4673e51fa6fde6fe6d060c01b613121565b6142bd816148da565b61437e565b6142d667436b35ca16e1cc7560c01b613121565b6142ea6753403e9024996b0b60c01b613121565b8173ffffffffffffffffffffffffffffffffffffffff168373ffffffffffffffffffffffffffffffffffffffff16146143685761433167f928d75bf557880c60c01b613121565b614345674c18aa7c6bf3104460c01b613121565b61435967af11c528f5338e5060c01b613121565b6143638382614973565b61437d565b61437c67822645eb30223bd660c01b613121565b5b5b61439267ce8ca2db793ba62560c01b613121565b6143a667e10b3681d9c965cb60c01b613121565b600073ffffffffffffffffffffffffffffffffffffffff168273ffffffffffffffffffffffffffffffffffffffff1603614424576143ee675f0cda0969ebc3aa60c01b613121565b6144026712246ed8b673133260c01b613121565b61441667a60b5924a04300f760c01b613121565b61441f81614c11565b6144e0565b61443867636b53effe4be56260c01b613121565b61444c67151e62e10ca8d17260c01b613121565b8273ffffffffffffffffffffffffffffffffffffffff168273ffffffffffffffffffffffffffffffffffffffff16146144ca57614493671e46208b1a47100c60c01b613121565b6144a7676fd1537fd96bae4960c01b613121565b6144bb675f1f1352dff6c0b760c01b613121565b6144c58282614dd2565b6144df565b6144de677a5b1c4ea5db2e8d60c01b613121565b5b5b505050565b6144f967e3c5a81d80d98dd960c01b613307565b61450d67f6aaa6f7341b65fa60c01b613307565b61452167c5b0c71d49b0df8860c01b613307565b61452b8383614eb5565b61453f674e3fe5955dd1780460c01b613307565b61455367a9da3fe632d58c0d60c01b613307565b6145676720194be9b1731a8960c01b613307565b61457460008484846145cc565b6145b3576040517f08c379a00000000000000000000000000000000000000000000000000000000081526004016145aa90616806565b60405180910390fd5b6145c767eb7bf674729e187560c01b613307565b505050565b60006145e267b7bbe87fcd284c9560c01b613307565b6145f667e7cdd04408c1d9b360c01b613307565b61460a6720f03de649dab1f660c01b613307565b6146298473ffffffffffffffffffffffffffffffffffffffff166151ae565b1561487257614642674de262974267a24260c01b613307565b614656677ab9b8f5c516beb060c01b613307565b61466a67f67d57370721066560c01b613307565b8373ffffffffffffffffffffffffffffffffffffffff1663150b7a0261468e6132c3565b8786866040518563ffffffff1660e01b81526004016146b0949392919061690c565b6020604051808303816000875af19250505080156146ec57506040513d601f19601f820116820180604052508101906146e9919061696d565b60015b6147fa573d806000811461471c576040519150601f19603f3d011682016040523d82523d6000602084013e614721565b606091505b50614736674511baacb9950bab60c01b613307565b61474a673077e22fd59f6b4b60c01b613307565b60008151036147ca576147676734106d24b355ae4b60c01b613307565b61477b67736fc4a54aed26ac60c01b613307565b61478f673036189eef09f48960c01b613307565b6040517f08c379a00000000000000000000000000000000000000000000000000000000081526004016147c190616806565b60405180910390fd5b6147de67c3e2bd775f65d9ba60c01b613307565b6147f26721af8d3e12cc6b2e60c01b613307565b805181602001fd5b61480e67a01bcb38fdd3d1cf60c01b613307565b6148226712406f509c6481a660c01b613307565b63150b7a0260e01b7bffffffffffffffffffffffffffffffffffffffffffffffffffffffff1916817bffffffffffffffffffffffffffffffffffffffffffffffffffffffff1916149150506148b3565b61488667eb79b5520072857c60c01b613307565b61489a67c2eacd09abbd644a60c01b613307565b6148ae67790e4ebd0f3f435060c01b613307565b600190505b949350505050565b50565b50565b6148d56751fb01a307037a8c60c01b613307565b505050565b6148ee67a8b5c3b18568d44f60c01b613121565b614902678ce9dc47c3601bce60c01b613121565b600880549050600960008381526020019081526020016000208190555061493367378eb25f3f1e8a3f60c01b613121565b61494767a81286ef448f42cd60c01b613121565b600881908060018154018082558091505060019003906000526020600020016000909190919091505550565b6149876722412351490a9faf60c01b613121565b61499b673077f97ea21cf85560c01b613121565b6149af67d9a2931003fb192b60c01b613121565b600060016149bc84611b3b565b6149c69190616760565b90506149dc67d05858726c6817c860c01b613121565b6149f067523d7912fc044f3560c01b613121565b600060076000848152602001908152602001600020549050614a1c6755aaec324c73ebda60c01b613121565b614a3067a1c79a8ada575e9960c01b613121565b818114614b6357614a4b676ce798374ce23bd560c01b613121565b614a5f6785a60ed8d7face1860c01b613121565b614a7367da60540e7c8aefea60c01b613121565b6000600660008673ffffffffffffffffffffffffffffffffffffffff1673ffffffffffffffffffffffffffffffffffffffff1681526020019081526020016000206000848152602001908152602001600020549050614adc6763b9e4cfeca464a360c01b613121565b80600660008773ffffffffffffffffffffffffffffffffffffffff1673ffffffffffffffffffffffffffffffffffffffff168152602001908152602001600020600084815260200190815260200160002081905550614b456761648379064ac16660c01b613121565b81600760008381526020019081526020016000208190555050614b78565b614b7767b7a7f56a7941e89460c01b613121565b5b614b8c67277c5841d43645ff60c01b613121565b6007600084815260200190815260200160002060009055614bb767a114922c13c3b76660c01b613121565b600660008573ffffffffffffffffffffffffffffffffffffffff1673ffffffffffffffffffffffffffffffffffffffff16815260200190815260200160002060008381526020019081526020016000206000905550505050565b614c2567390eb02255e72dd160c01b613121565b614c3967ebc6f8cdc4d51b0760c01b613121565b614c4d67daa2d08725ebe84c60c01b613121565b60006001600880549050614c619190616760565b9050614c77679941cb45b9b3d8a660c01b613121565b614c8b67acdfea26594f5a6b60c01b613121565b600060096000848152602001908152602001600020549050614cb7678ae6bfd8cd0e270360c01b613121565b614ccb671df912a69d0e829660c01b613121565b600060088381548110614ce157614ce0615dda565b5b90600052602060002001549050614d02673c2201d1fb24b96a60c01b613121565b8060088381548110614d1757614d16615dda565b5b9060005260206000200181905550614d3967c799c7137ec13f3960c01b613121565b816009600083815260200190815260200160002081905550614d65679c95661ab9ce48f060c01b613121565b6009600085815260200190815260200160002060009055614d9067e61b4342c07cdbe560c01b613121565b614da467baee3775817b41fb60c01b613121565b6008805480614db657614db561699a565b5b6001900381819060005260206000200160009055905550505050565b614de6674d969498dba039e560c01b613121565b614dfa6758e39c4963d1d69f60c01b613121565b614e0e673d7455e43eb3940760c01b613121565b6000614e1983611b3b565b9050614e2f67e5adfc6db2f5bdb860c01b613121565b81600660008573ffffffffffffffffffffffffffffffffffffffff1673ffffffffffffffffffffffffffffffffffffffff168152602001908152602001600020600083815260200190815260200160002081905550614e98672a34298ea770403360c01b613121565b806007600084815260200190815260200160002081905550505050565b614ec967386625052d8b78cf60c01b613307565b614edd670100ef5c3adbd4e860c01b613307565b614ef1673967ed291f70a7bc60c01b613307565b614f0567e46c37302a19ed2660c01b613307565b600073ffffffffffffffffffffffffffffffffffffffff168273ffffffffffffffffffffffffffffffffffffffff1603614f74576040517f08c379a0000000000000000000000000000000000000000000000000000000008152600401614f6b90616a15565b60405180910390fd5b614f886790b546757b3a7a0460c01b613307565b614f9c676e060e3eeee38c1760c01b613307565b614fb0676fb1404e9564194560c01b613307565b614fc467a60b7991a99ab38260c01b613307565b614fcd8161330a565b1561500d576040517f08c379a000000000000000000000000000000000000000000000000000000000815260040161500490616a81565b60405180910390fd5b615021675e1cf2dd08ef53ab60c01b613307565b61503567110505ed4911c76d60c01b613307565b615049677f95e40786b0a37260c01b613307565b615055600083836141d5565b61506967262b971c2ec0e25560c01b613307565b6001600360008473ffffffffffffffffffffffffffffffffffffffff1673ffffffffffffffffffffffffffffffffffffffff16815260200190815260200160002060008282546150b991906162b4565b925050819055506150d467533a5849083a57cb60c01b613307565b816002600083815260200190815260200160002060006101000a81548173ffffffffffffffffffffffffffffffffffffffff021916908373ffffffffffffffffffffffffffffffffffffffff16021790555061513a678259aa55758161eb60c01b613307565b61514e673165d086f303989c60c01b613307565b808273ffffffffffffffffffffffffffffffffffffffff16600073ffffffffffffffffffffffffffffffffffffffff167fddf252ad1be2c89b69c2b068fc378daa952ba7f163c4a11628f55a4df523b3ef60405160405180910390a45050565b60006151c467403fe8191a67e6a860c01b61523a565b6151d867aef4cc6f3a6f518f60c01b61523a565b6151ec67d19b5a85dc5f294e60c01b61523a565b600061520267fb1a7d57c4796a2e60c01b61523a565b823b905061521a67206a74649b97f75660c01b61523a565b61522e676b98097de03195cb60c01b61523a565b60008111915050919050565b50565b6000604051905090565b600080fd5b600080fd5b60007fffffffff0000000000000000000000000000000000000000000000000000000082169050919050565b61528681615251565b811461529157600080fd5b50565b6000813590506152a38161527d565b92915050565b6000602082840312156152bf576152be615247565b5b60006152cd84828501615294565b91505092915050565b60008115159050919050565b6152eb816152d6565b82525050565b600060208201905061530660008301846152e2565b92915050565b615315816152d6565b811461532057600080fd5b50565b6000813590506153328161530c565b92915050565b60006020828403121561534e5761534d615247565b5b600061535c84828501615323565b91505092915050565b600081519050919050565b600082825260208201905092915050565b60005b8381101561539f578082015181840152602081019050615384565b60008484015250505050565b6000601f19601f8301169050919050565b60006153c782615365565b6153d18185615370565b93506153e1818560208601615381565b6153ea816153ab565b840191505092915050565b6000602082019050818103600083015261540f81846153bc565b905092915050565b6000819050919050565b61542a81615417565b811461543557600080fd5b50565b60008135905061544781615421565b92915050565b60006020828403121561546357615462615247565b5b600061547184828501615438565b91505092915050565b600073ffffffffffffffffffffffffffffffffffffffff82169050919050565b60006154a58261547a565b9050919050565b6154b58161549a565b82525050565b60006020820190506154d060008301846154ac565b92915050565b6154df8161549a565b81146154ea57600080fd5b50565b6000813590506154fc816154d6565b92915050565b6000806040838503121561551957615518615247565b5b6000615527858286016154ed565b925050602061553885828601615438565b9150509250929050565b61554b81615417565b82525050565b60006020820190506155666000830184615542565b92915050565b60008060006060848603121561558557615584615247565b5b6000615593868287016154ed565b93505060206155a4868287016154ed565b92505060406155b586828701615438565b9150509250925092565b6000602082840312156155d5576155d4615247565b5b60006155e3848285016154ed565b91505092915050565b600081519050919050565b600082825260208201905092915050565b6000819050602082019050919050565b61562181615417565b82525050565b60006156338383615618565b60208301905092915050565b6000602082019050919050565b6000615657826155ec565b61566181856155f7565b935061566c83615608565b8060005b8381101561569d5781516156848882615627565b975061568f8361563f565b925050600181019050615670565b5085935050505092915050565b600060208201905081810360008301526156c4818461564c565b905092915050565b600080fd5b600080fd5b7f4e487b7100000000000000000000000000000000000000000000000000000000600052604160045260246000fd5b61570e826153ab565b810181811067ffffffffffffffff8211171561572d5761572c6156d6565b5b80604052505050565b600061574061523d565b905061574c8282615705565b919050565b600067ffffffffffffffff82111561576c5761576b6156d6565b5b615775826153ab565b9050602081019050919050565b82818337600083830152505050565b60006157a461579f84615751565b615736565b9050828152602081018484840111156157c0576157bf6156d1565b5b6157cb848285615782565b509392505050565b600082601f8301126157e8576157e76156cc565b5b81356157f8848260208601615791565b91505092915050565b60006020828403121561581757615816615247565b5b600082013567ffffffffffffffff8111156158355761583461524c565b5b615841848285016157d3565b91505092915050565b6000806040838503121561586157615860615247565b5b600061586f858286016154ed565b925050602061588085828601615323565b9150509250929050565b600067ffffffffffffffff8211156158a5576158a46156d6565b5b6158ae826153ab565b9050602081019050919050565b60006158ce6158c98461588a565b615736565b9050828152602081018484840111156158ea576158e96156d1565b5b6158f5848285615782565b509392505050565b600082601f830112615912576159116156cc565b5b81356159228482602086016158bb565b91505092915050565b6000806000806080858703121561594557615944615247565b5b6000615953878288016154ed565b9450506020615964878288016154ed565b935050604061597587828801615438565b925050606085013567ffffffffffffffff8111156159965761599561524c565b5b6159a2878288016158fd565b91505092959194509250565b600080604083850312156159c5576159c4615247565b5b60006159d3858286016154ed565b92505060206159e4858286016154ed565b9150509250929050565b7f4f776e61626c653a2063616c6c6572206973206e6f7420746865206f776e6572600082015250565b6000615a24602083615370565b9150615a2f826159ee565b602082019050919050565b60006020820190508181036000830152615a5381615a17565b9050919050565b7f4e487b7100000000000000000000000000000000000000000000000000000000600052602260045260246000fd5b60006002820490506001821680615aa157607f821691505b602082108103615ab457615ab3615a5a565b5b50919050565b7f4552433732313a20617070726f76656420717565727920666f72206e6f6e657860008201527f697374656e7420746f6b656e0000000000000000000000000000000000000000602082015250565b6000615b16602c83615370565b9150615b2182615aba565b604082019050919050565b60006020820190508181036000830152615b4581615b09565b9050919050565b7f4552433732313a20617070726f76616c20746f2063757272656e74206f776e6560008201527f7200000000000000000000000000000000000000000000000000000000000000602082015250565b6000615ba8602183615370565b9150615bb382615b4c565b604082019050919050565b60006020820190508181036000830152615bd781615b9b565b9050919050565b7f4552433732313a20617070726f76652063616c6c6572206973206e6f74206f7760008201527f6e6572206e6f7220617070726f76656420666f7220616c6c0000000000000000602082015250565b6000615c3a603883615370565b9150615c4582615bde565b604082019050919050565b60006020820190508181036000830152615c6981615c2d565b9050919050565b7f4552433732313a207472616e736665722063616c6c6572206973206e6f74206f60008201527f776e6572206e6f7220617070726f766564000000000000000000000000000000602082015250565b6000615ccc603183615370565b9150615cd782615c70565b604082019050919050565b60006020820190508181036000830152615cfb81615cbf565b9050919050565b7f455243373231456e756d657261626c653a206f776e657220696e646578206f7560008201527f74206f6620626f756e6473000000000000000000000000000000000000000000602082015250565b6000615d5e602b83615370565b9150615d6982615d02565b604082019050919050565b60006020820190508181036000830152615d8d81615d51565b9050919050565b600081905092915050565b50565b6000615daf600083615d94565b9150615dba82615d9f565b600082019050919050565b6000615dd082615da2565b9150819050919050565b7f4e487b7100000000000000000000000000000000000000000000000000000000600052603260045260246000fd5b7f4e487b7100000000000000000000000000000000000000000000000000000000600052601160045260246000fd5b6000615e4382615417565b91507fffffffffffffffffffffffffffffffffffffffffffffffffffffffffffffffff8203615e7557615e74615e09565b5b600182019050919050565b7f455243373231456e756d657261626c653a20676c6f62616c20696e646578206f60008201527f7574206f6620626f756e64730000000000000000000000000000000000000000602082015250565b6000615edc602c83615370565b9150615ee782615e80565b604082019050919050565b60006020820190508181036000830152615f0b81615ecf565b9050919050565b60008190508160005260206000209050919050565b60006020601f8301049050919050565b600082821b905092915050565b600060088302615f747fffffffffffffffffffffffffffffffffffffffffffffffffffffffffffffffff82615f37565b615f7e8683615f37565b95508019841693508086168417925050509392505050565b6000819050919050565b6000615fbb615fb6615fb184615417565b615f96565b615417565b9050919050565b6000819050919050565b615fd583615fa0565b615fe9615fe182615fc2565b848454615f44565b825550505050565b600090565b615ffe615ff1565b616009818484615fcc565b505050565b5b8181101561602d57616022600082615ff6565b60018101905061600f565b5050565b601f8211156160725761604381615f12565b61604c84615f27565b8101602085101561605b578190505b61606f61606785615f27565b83018261600e565b50505b505050565b600082821c905092915050565b600061609560001984600802616077565b1980831691505092915050565b60006160ae8383616084565b9150826002028217905092915050565b6160c782615365565b67ffffffffffffffff8111156160e0576160df6156d6565b5b6160ea8254615a89565b6160f5828285616031565b600060209050601f8311600181146161285760008415616116578287015190505b61612085826160a2565b865550616188565b601f19841661613686615f12565b60005b8281101561615e57848901518255600182019150602085019450602081019050616139565b8683101561617b5784890151616177601f891682616084565b8355505b6001600288020188555050505b505050505050565b7f4552433732313a206f776e657220717565727920666f72206e6f6e657869737460008201527f656e7420746f6b656e0000000000000000000000000000000000000000000000602082015250565b60006161ec602983615370565b91506161f782616190565b604082019050919050565b6000602082019050818103600083015261621b816161df565b9050919050565b7f4552433732313a2062616c616e636520717565727920666f7220746865207a6560008201527f726f206164647265737300000000000000000000000000000000000000000000602082015250565b600061627e602a83615370565b915061628982616222565b604082019050919050565b600060208201905081810360008301526162ad81616271565b9050919050565b60006162bf82615417565b91506162ca83615417565b92508282019050808211156162e2576162e1615e09565b5b92915050565b60006162f382615417565b91506162fe83615417565b925082820261630c81615417565b9150828204841483151761632357616322615e09565b5b5092915050565b7f4552433732313a20617070726f766520746f2063616c6c657200000000000000600082015250565b6000616360601983615370565b915061636b8261632a565b602082019050919050565b6000602082019050818103600083015261638f81616353565b9050919050565b7f4552433732314d657461646174613a2055524920717565727920666f72206e6f60008201527f6e6578697374656e7420746f6b656e0000000000000000000000000000000000602082015250565b60006163f2602f83615370565b91506163fd82616396565b604082019050919050565b60006020820190508181036000830152616421816163e5565b9050919050565b600081905092915050565b600061643e82615365565b6164488185616428565b9350616458818560208601615381565b80840191505092915050565b6000815461647181615a89565b61647b8186616428565b9450600182166000811461649657600181146164ab576164de565b60ff19831686528115158202860193506164de565b6164b485615f12565b60005b838110156164d6578154818901526001820191506020810190506164b7565b838801955050505b50505092915050565b60006164f38286616433565b91506164ff8285616433565b915061650b8284616464565b9150819050949350505050565b7f4f776e61626c653a206e6577206f776e657220697320746865207a65726f206160008201527f6464726573730000000000000000000000000000000000000000000000000000602082015250565b6000616574602683615370565b915061657f82616518565b604082019050919050565b600060208201905081810360008301526165a381616567565b9050919050565b7f4552433732313a206f70657261746f7220717565727920666f72206e6f6e657860008201527f697374656e7420746f6b656e0000000000000000000000000000000000000000602082015250565b6000616606602c83615370565b9150616611826165aa565b604082019050919050565b60006020820190508181036000830152616635816165f9565b9050919050565b7f4552433732313a207472616e73666572206f6620746f6b656e2074686174206960008201527f73206e6f74206f776e0000000000000000000000000000000000000000000000602082015250565b6000616698602983615370565b91506166a38261663c565b604082019050919050565b600060208201905081810360008301526166c78161668b565b9050919050565b7f4552433732313a207472616e7366657220746f20746865207a65726f2061646460008201527f7265737300000000000000000000000000000000000000000000000000000000602082015250565b600061672a602483615370565b9150616735826166ce565b604082019050919050565b600060208201905081810360008301526167598161671d565b9050919050565b600061676b82615417565b915061677683615417565b925082820390508181111561678e5761678d615e09565b5b92915050565b7f4552433732313a207472616e7366657220746f206e6f6e20455243373231526560008201527f63656976657220696d706c656d656e7465720000000000000000000000000000602082015250565b60006167f0603283615370565b91506167fb82616794565b604082019050919050565b6000602082019050818103600083015261681f816167e3565b9050919050565b7f4e487b7100000000000000000000000000000000000000000000000000000000600052601260045260246000fd5b600061686082615417565b915061686b83615417565b92508261687b5761687a616826565b5b828204905092915050565b600061689182615417565b915061689c83615417565b9250826168ac576168ab616826565b5b828206905092915050565b600081519050919050565b600082825260208201905092915050565b60006168de826168b7565b6168e881856168c2565b93506168f8818560208601615381565b616901816153ab565b840191505092915050565b600060808201905061692160008301876154ac565b61692e60208301866154ac565b61693b6040830185615542565b818103606083015261694d81846168d3565b905095945050505050565b6000815190506169678161527d565b92915050565b60006020828403121561698357616982615247565b5b600061699184828501616958565b91505092915050565b7f4e487b7100000000000000000000000000000000000000000000000000000000600052603160045260246000fd5b7f4552433732313a206d696e7420746f20746865207a65726f2061646472657373600082015250565b60006169ff602083615370565b9150616a0a826169c9565b602082019050919050565b60006020820190508181036000830152616a2e816169f2565b9050919050565b7f4552433732313a20746f6b656e20616c7265616479206d696e74656400000000600082015250565b6000616a6b601c83615370565b9150616a7682616a35565b602082019050919050565b60006020820190508181036000830152616a9a81616a5e565b905091905056fea2646970667358221220c5bc7f5f0114f69a8ab851097719fffde008678656f525e33c6a17d57520f18164736f6c63430008130033",
  "linkReferences": {},
  "deployedLinkReferences": {}
}