{
  "_format": "hh-sol-artifact-1",
  "contractName": "MothoreFoundry",
  "sourceName": "contracts/NFT_collection.sol",
  "abi": [
    {
      "inputs": [],
      "stateMutability": "nonpayable",
      "type": "constructor"
    },
    {
      "anonymous": false,
      "inputs": [
        {
          "indexed": true,
          "internalType": "address",
          "name": "owner",
          "type": "address"
        },
        {
          "indexed": true,
          "internalType": "address",
          "name": "approved",
          "type": "address"
        },
        {
          "indexed": true,
          "internalType": "uint256",
          "name": "tokenId",
          "type": "uint256"
        }
      ],
      "name": "Approval",
      "type": "event"
    },
    {
      "anonymous": false,
      "inputs": [
        {
          "indexed": true,
          "internalType": "address",
          "name": "owner",
          "type": "address"
        },
        {
          "indexed": true,
          "internalType": "address",
          "name": "operator",
          "type": "address"
        },
        {
          "indexed": false,
          "internalType": "bool",
          "name": "approved",
          "type": "bool"
        }
      ],
      "name": "ApprovalForAll",
      "type": "event"
    },
    {
      "anonymous": false,
      "inputs": [
        {
          "indexed": true,
          "internalType": "address",
          "name": "previousOwner",
          "type": "address"
        },
        {
          "indexed": true,
          "internalType": "address",
          "name": "newOwner",
          "type": "address"
        }
      ],
      "name": "OwnershipTransferred",
      "type": "event"
    },
    {
      "anonymous": false,
      "inputs": [
        {
          "indexed": true,
          "internalType": "address",
          "name": "from",
          "type": "address"
        },
        {
          "indexed": true,
          "internalType": "address",
          "name": "to",
          "type": "address"
        },
        {
          "indexed": true,
          "internalType": "uint256",
          "name": "tokenId",
          "type": "uint256"
        }
      ],
      "name": "Transfer",
      "type": "event"
    },
    {
      "inputs": [
        {
          "internalType": "address",
          "name": "to",
          "type": "address"
        },
        {
          "internalType": "uint256",
          "name": "tokenId",
          "type": "uint256"
        }
      ],
      "name": "approve",
      "outputs": [],
      "stateMutability": "nonpayable",
      "type": "function"
    },
    {
      "inputs": [
        {
          "internalType": "address",
          "name": "owner",
          "type": "address"
        }
      ],
      "name": "balanceOf",
      "outputs": [
        {
          "internalType": "uint256",
          "name": "",
          "type": "uint256"
        }
      ],
      "stateMutability": "view",
      "type": "function"
    },
    {
      "inputs": [],
      "name": "baseExtension",
      "outputs": [
        {
          "internalType": "string",
          "name": "",
          "type": "string"
        }
      ],
      "stateMutability": "view",
      "type": "function"
    },
    {
      "inputs": [],
      "name": "baseURI",
      "outputs": [
        {
          "internalType": "string",
          "name": "",
          "type": "string"
        }
      ],
      "stateMutability": "view",
      "type": "function"
    },
    {
      "inputs": [],
      "name": "cost",
      "outputs": [
        {
          "internalType": "uint256",
          "name": "",
          "type": "uint256"
        }
      ],
      "stateMutability": "view",
      "type": "function"
    },
    {
      "inputs": [
        {
          "internalType": "uint256",
          "name": "tokenId",
          "type": "uint256"
        }
      ],
      "name": "getApproved",
      "outputs": [
        {
          "internalType": "address",
          "name": "",
          "type": "address"
        }
      ],
      "stateMutability": "view",
      "type": "function"
    },
    {
      "inputs": [
        {
          "internalType": "address",
          "name": "owner",
          "type": "address"
        },
        {
          "internalType": "address",
          "name": "operator",
          "type": "address"
        }
      ],
      "name": "isApprovedForAll",
      "outputs": [
        {
          "internalType": "bool",
          "name": "",
          "type": "bool"
        }
      ],
      "stateMutability": "view",
      "type": "function"
    },
    {
      "inputs": [],
      "name": "maxMintAmount",
      "outputs": [
        {
          "internalType": "uint256",
          "name": "",
          "type": "uint256"
        }
      ],
      "stateMutability": "view",
      "type": "function"
    },
    {
      "inputs": [],
      "name": "maxSupply",
      "outputs": [
        {
          "internalType": "uint256",
          "name": "",
          "type": "uint256"
        }
      ],
      "stateMutability": "view",
      "type": "function"
    },
    {
      "inputs": [
        {
          "internalType": "address",
          "name": "_to",
          "type": "address"
        },
        {
          "internalType": "uint256",
          "name": "_mintAmount",
          "type": "uint256"
        }
      ],
      "name": "mint",
      "outputs": [],
      "stateMutability": "payable",
      "type": "function"
    },
    {
      "inputs": [],
      "name": "name",
      "outputs": [
        {
          "internalType": "string",
          "name": "",
          "type": "string"
        }
      ],
      "stateMutability": "view",
      "type": "function"
    },
    {
      "inputs": [],
      "name": "owner",
      "outputs": [
        {
          "internalType": "address",
          "name": "",
          "type": "address"
        }
      ],
      "stateMutability": "view",
      "type": "function"
    },
    {
      "inputs": [
        {
          "internalType": "uint256",
          "name": "tokenId",
          "type": "uint256"
        }
      ],
      "name": "ownerOf",
      "outputs": [
        {
          "internalType": "address",
          "name": "",
          "type": "address"
        }
      ],
      "stateMutability": "view",
      "type": "function"
    },
    {
      "inputs": [
        {
          "internalType": "bool",
          "name": "_state",
          "type": "bool"
        }
      ],
      "name": "pause",
      "outputs": [],
      "stateMutability": "nonpayable",
      "type": "function"
    },
    {
      "inputs": [],
      "name": "paused",
      "outputs": [
        {
          "internalType": "bool",
          "name": "",
          "type": "bool"
        }
      ],
      "stateMutability": "view",
      "type": "function"
    },
    {
      "inputs": [],
      "name": "renounceOwnership",
      "outputs": [],
      "stateMutability": "nonpayable",
      "type": "function"
    },
    {
      "inputs": [
        {
          "internalType": "address",
          "name": "from",
          "type": "address"
        },
        {
          "internalType": "address",
          "name": "to",
          "type": "address"
        },
        {
          "internalType": "uint256",
          "name": "tokenId",
          "type": "uint256"
        }
      ],
      "name": "safeTransferFrom",
      "outputs": [],
      "stateMutability": "nonpayable",
      "type": "function"
    },
    {
      "inputs": [
        {
          "internalType": "address",
          "name": "from",
          "type": "address"
        },
        {
          "internalType": "address",
          "name": "to",
          "type": "address"
        },
        {
          "internalType": "uint256",
          "name": "tokenId",
          "type": "uint256"
        },
        {
          "internalType": "bytes",
          "name": "_data",
          "type": "bytes"
        }
      ],
      "name": "safeTransferFrom",
      "outputs": [],
      "stateMutability": "nonpayable",
      "type": "function"
    },
    {
      "inputs": [
        {
          "internalType": "address",
          "name": "operator",
          "type": "address"
        },
        {
          "internalType": "bool",
          "name": "approved",
          "type": "bool"
        }
      ],
      "name": "setApprovalForAll",
      "outputs": [],
      "stateMutability": "nonpayable",
      "type": "function"
    },
    {
      "inputs": [
        {
          "internalType": "string",
          "name": "_newBaseExtension",
          "type": "string"
        }
      ],
      "name": "setBaseExtension",
      "outputs": [],
      "stateMutability": "nonpayable",
      "type": "function"
    },
    {
      "inputs": [
        {
          "internalType": "string",
          "name": "_newBaseURI",
          "type": "string"
        }
      ],
      "name": "setBaseURI",
      "outputs": [],
      "stateMutability": "nonpayable",
      "type": "function"
    },
    {
      "inputs": [
        {
          "internalType": "uint256",
          "name": "_newmaxMintAmount",
          "type": "uint256"
        }
      ],
      "name": "setmaxMintAmount",
      "outputs": [],
      "stateMutability": "nonpayable",
      "type": "function"
    },
    {
      "inputs": [
        {
          "internalType": "bytes4",
          "name": "interfaceId",
          "type": "bytes4"
        }
      ],
      "name": "supportsInterface",
      "outputs": [
        {
          "internalType": "bool",
          "name": "",
          "type": "bool"
        }
      ],
      "stateMutability": "view",
      "type": "function"
    },
    {
      "inputs": [],
      "name": "symbol",
      "outputs": [
        {
          "internalType": "string",
          "name": "",
          "type": "string"
        }
      ],
      "stateMutability": "view",
      "type": "function"
    },
    {
      "inputs": [
        {
          "internalType": "uint256",
          "name": "index",
          "type": "uint256"
        }
      ],
      "name": "tokenByIndex",
      "outputs": [
        {
          "internalType": "uint256",
          "name": "",
          "type": "uint256"
        }
      ],
      "stateMutability": "view",
      "type": "function"
    },
    {
      "inputs": [
        {
          "internalType": "address",
          "name": "owner",
          "type": "address"
        },
        {
          "internalType": "uint256",
          "name": "index",
          "type": "uint256"
        }
      ],
      "name": "tokenOfOwnerByIndex",
      "outputs": [
        {
          "internalType": "uint256",
          "name": "",
          "type": "uint256"
        }
      ],
      "stateMutability": "view",
      "type": "function"
    },
    {
      "inputs": [
        {
          "internalType": "uint256",
          "name": "tokenId",
          "type": "uint256"
        }
      ],
      "name": "tokenURI",
      "outputs": [
        {
          "internalType": "string",
          "name": "",
          "type": "string"
        }
      ],
      "stateMutability": "view",
      "type": "function"
    },
    {
      "inputs": [],
      "name": "totalSupply",
      "outputs": [
        {
          "internalType": "uint256",
          "name": "",
          "type": "uint256"
        }
      ],
      "stateMutability": "view",
      "type": "function"
    },
    {
      "inputs": [
        {
          "internalType": "address",
          "name": "from",
          "type": "address"
        },
        {
          "internalType": "address",
          "name": "to",
          "type": "address"
        },
        {
          "internalType": "uint256",
          "name": "tokenId",
          "type": "uint256"
        }
      ],
      "name": "transferFrom",
      "outputs": [],
      "stateMutability": "nonpayable",
      "type": "function"
    },
    {
      "inputs": [
        {
          "internalType": "address",
          "name": "newOwner",
          "type": "address"
        }
      ],
      "name": "transferOwnership",
      "outputs": [],
      "stateMutability": "nonpayable",
      "type": "function"
    },
    {
      "inputs": [
        {
          "internalType": "address",
          "name": "_owner",
          "type": "address"
        }
      ],
      "name": "walletOfOwner",
      "outputs": [
        {
          "internalType": "uint256[]",
          "name": "",
          "type": "uint256[]"
        }
      ],
      "stateMutability": "view",
      "type": "function"
    },
    {
      "inputs": [],
      "name": "withdraw",
      "outputs": [],
      "stateMutability": "payable",
      "type": "function"
    }
  ],
  "bytecode": "0x60806040526040518060400160405280600581526020017f2e6a736f6e000000000000000000000000000000000000000000000000000000815250600c90816200004a919062000656565b5066b1a2bc2ec50000600d556103e8600e556005600f556000601060006101000a81548160ff0219169083151502179055503480156200008957600080fd5b506040518060400160405280601e81526020017f4d6f74686f726520466f756e647279204e465420436f6c6c656374696f6e00008152506040518060400160405280600381526020017f4d464e000000000000000000000000000000000000000000000000000000000081525062000112677b5faac66854ca5460c01b6200020660201b60201c565b6200012e67461ec8abb0b7424160c01b6200020660201b60201c565b81600090816200013f919062000656565b506200015c6754858b93d452700660c01b6200020660201b60201c565b80600190816200016d919062000656565b5050506200018c67e4788803c1a52ba560c01b6200020960201b60201c565b620001a867a525b5ace2311b4f60c01b6200020960201b60201c565b620001c467eb36f26b315309b060c01b6200020960201b60201c565b620001e4620001d86200020c60201b60201c565b6200026860201b60201c565b62000200679492c488c388c88960c01b620003d660201b60201c565b6200073d565b50565b50565b60006200022a671481bf2910848b7160c01b620003d960201b60201c565b62000246674417a71d3106809360c01b620003d960201b60201c565b62000262677d2438954c7feb1960c01b620003d960201b60201c565b33905090565b6200028467d820dbadcdef6f9d60c01b6200020960201b60201c565b620002a067744ad8cb087e55c860c01b6200020960201b60201c565b620002bc670877ccfcb575671960c01b6200020960201b60201c565b6000600a60009054906101000a900473ffffffffffffffffffffffffffffffffffffffff169050620002ff677fcb47b897dc9e5c60c01b6200020960201b60201c565b81600a60006101000a81548173ffffffffffffffffffffffffffffffffffffffff021916908373ffffffffffffffffffffffffffffffffffffffff1602179055506200035c67dafa91662ac7710f60c01b6200020960201b60201c565b6200037867e5987a1106a6007d60c01b6200020960201b60201c565b8173ffffffffffffffffffffffffffffffffffffffff168173ffffffffffffffffffffffffffffffffffffffff167f8be0079c531659141344cd1fd0a4f28419497f9722a3daafe3b4186f6b6457e060405160405180910390a35050565b50565b50565b600081519050919050565b7f4e487b7100000000000000000000000000000000000000000000000000000000600052604160045260246000fd5b7f4e487b7100000000000000000000000000000000000000000000000000000000600052602260045260246000fd5b600060028204905060018216806200045e57607f821691505b60208210810362000474576200047362000416565b5b50919050565b60008190508160005260206000209050919050565b60006020601f8301049050919050565b600082821b905092915050565b600060088302620004de7fffffffffffffffffffffffffffffffffffffffffffffffffffffffffffffffff826200049f565b620004ea86836200049f565b95508019841693508086168417925050509392505050565b6000819050919050565b6000819050919050565b600062000537620005316200052b8462000502565b6200050c565b62000502565b9050919050565b6000819050919050565b620005538362000516565b6200056b62000562826200053e565b848454620004ac565b825550505050565b600090565b6200058262000573565b6200058f81848462000548565b505050565b5b81811015620005b757620005ab60008262000578565b60018101905062000595565b5050565b601f8211156200060657620005d0816200047a565b620005db846200048f565b81016020851015620005eb578190505b62000603620005fa856200048f565b83018262000594565b50505b505050565b600082821c905092915050565b60006200062b600019846008026200060b565b1980831691505092915050565b600062000646838362000618565b9150826002028217905092915050565b6200066182620003dc565b67ffffffffffffffff8111156200067d576200067c620003e7565b5b62000689825462000445565b62000696828285620005bb565b600060209050601f831160018114620006ce5760008415620006b9578287015190505b620006c5858262000638565b86555062000735565b601f198416620006de866200047a565b60005b828110156200070857848901518255600182019150602085019450602081019050620006e1565b8683101562000728578489015162000724601f89168262000618565b8355505b6001600288020188555050505b505050505050565b61644f806200074d6000396000f3fe6080604052600436106101e35760003560e01c80635c975abb11610102578063a22cb46511610095578063d5abeb0111610064578063d5abeb01146106d8578063da3ef23f14610703578063e985e9c51461072c578063f2fde38b14610769576101e3565b8063a22cb4651461061e578063b88d4fde14610647578063c668286214610670578063c87b56dd1461069b576101e3565b8063715018a6116100d1578063715018a6146105885780637f00c7a61461059f5780638da5cb5b146105c857806395d89b41146105f3576101e3565b80635c975abb146104b85780636352211e146104e35780636c0360eb1461052057806370a082311461054b576101e3565b806323b872dd1161017a57806342842e0e1161014957806342842e0e146103ec578063438b6300146104155780634f6ccce71461045257806355f804b31461048f576101e3565b806323b872dd146103605780632f745c59146103895780633ccfd60b146103c657806340c10f19146103d0576101e3565b8063095ea7b3116101b6578063095ea7b3146102b657806313faede6146102df57806318160ddd1461030a578063239c70ae14610335576101e3565b806301ffc9a7146101e857806302329a291461022557806306fdde031461024e578063081812fc14610279575b600080fd5b3480156101f457600080fd5b5061020f600480360381019061020a9190614bc5565b610792565b60405161021c9190614c0d565b60405180910390f35b34801561023157600080fd5b5061024c60048036038101906102479190614c54565b610880565b005b34801561025a57600080fd5b506102636109e1565b6040516102709190614d11565b60405180910390f35b34801561028557600080fd5b506102a0600480360381019061029b9190614d69565b610aaf565b6040516102ad9190614dd7565b60405180910390f35b3480156102c257600080fd5b506102dd60048036038101906102d89190614e1e565b610bc0565b005b3480156102eb57600080fd5b506102f4610e13565b6040516103019190614e6d565b60405180910390f35b34801561031657600080fd5b5061031f610e19565b60405161032c9190614e6d565b60405180910390f35b34801561034157600080fd5b5061034a610e62565b6040516103579190614e6d565b60405180910390f35b34801561036c57600080fd5b5061038760048036038101906103829190614e88565b610e68565b005b34801561039557600080fd5b506103b060048036038101906103ab9190614e1e565b610f54565b6040516103bd9190614e6d565b60405180910390f35b6103ce611085565b005b6103ea60048036038101906103e59190614e1e565b611245565b005b3480156103f857600080fd5b50610413600480360381019061040e9190614e88565b6115d8565b005b34801561042157600080fd5b5061043c60048036038101906104379190614edb565b611634565b6040516104499190614fc6565b60405180910390f35b34801561045e57600080fd5b5061047960048036038101906104749190614d69565b6117aa565b6040516104869190614e6d565b60405180910390f35b34801561049b57600080fd5b506104b660048036038101906104b1919061511d565b6118a7565b005b3480156104c457600080fd5b506104cd6119fe565b6040516104da9190614c0d565b60405180910390f35b3480156104ef57600080fd5b5061050a60048036038101906105059190614d69565b611a11565b6040516105179190614dd7565b60405180910390f35b34801561052c57600080fd5b50610535611b77565b6040516105429190614d11565b60405180910390f35b34801561055757600080fd5b50610572600480360381019061056d9190614edb565b611c05565b60405161057f9190614e6d565b60405180910390f35b34801561059457600080fd5b5061059d611d49565b005b3480156105ab57600080fd5b506105c660048036038101906105c19190614d69565b611ead565b005b3480156105d457600080fd5b506105dd611ffb565b6040516105ea9190614dd7565b60405180910390f35b3480156105ff57600080fd5b50610608612061565b6040516106159190614d11565b60405180910390f35b34801561062a57600080fd5b5061064560048036038101906106409190615166565b61212f565b005b34801561065357600080fd5b5061066e60048036038101906106699190615247565b61234f565b005b34801561067c57600080fd5b5061068561243d565b6040516106929190614d11565b60405180910390f35b3480156106a757600080fd5b506106c260048036038101906106bd9190614d69565b6124cb565b6040516106cf9190614d11565b60405180910390f35b3480156106e457600080fd5b506106ed612660565b6040516106fa9190614e6d565b60405180910390f35b34801561070f57600080fd5b5061072a6004803603810190610725919061511d565b612666565b005b34801561073857600080fd5b50610753600480360381019061074e91906152ca565b6127bd565b6040516107609190614c0d565b60405180910390f35b34801561077557600080fd5b50610790600480360381019061078b9190614edb565b61288d565b005b60006107a867b78c79d35bdcab6760c01b612ab0565b6107bc679e50ba3f94ba2eb060c01b612ab0565b6107d067bbe96b8becc214d260c01b612ab0565b7f780e9d63000000000000000000000000000000000000000000000000000000007bffffffffffffffffffffffffffffffffffffffffffffffffffffffff1916827bffffffffffffffffffffffffffffffffffffffffffffffffffffffff191614801561084d575061084c67f3fbc4c8709d417d60c01b612ab3565b5b80610879575061085c82612abe565b8015610878575061087767a51d9913044d0e6460c01b612ab3565b5b5b9050919050565b61089467ed7e960b656893fd60c01b612c4c565b6108a8679a32e161a80ed7c160c01b612c4f565b6108bc6733749b419ec36d5f60c01b612c4f565b6108d067575f11c04ee007d460c01b612c4f565b6108e4671e5add8cb0d8e63860c01b612c4f565b6108ec612c52565b73ffffffffffffffffffffffffffffffffffffffff1661090a611ffb565b73ffffffffffffffffffffffffffffffffffffffff1614610960576040517f08c379a000000000000000000000000000000000000000000000000000000000815260040161095790615356565b60405180910390fd5b61097467c0aaef80eace722a60c01b612c4f565b610988675553c0283d815f4d60c01b612c4f565b61099c67c182a00c934a879760c01b612c4c565b6109b06709615a227b3fe31060c01b612c4c565b6109c4675e7de6da1042403560c01b612c4c565b80601060006101000a81548160ff02191690831515021790555050565b60606109f76755793cbb59d4fc0b60c01b612c96565b610a0b6786a6f674af1ef0bb60c01b612c96565b610a1f67197222572f3d020660c01b612c96565b60008054610a2c906153a5565b80601f0160208091040260200160405190810160405280929190818152602001828054610a58906153a5565b8015610aa55780601f10610a7a57610100808354040283529160200191610aa5565b820191906000526020600020905b815481529060010190602001808311610a8857829003601f168201915b5050505050905090565b6000610ac5672bea64bd9c23d00a60c01b612c96565b610ad9674868572394a0e93060c01b612c96565b610aed676fcf2aa9f1b779fe60c01b612c96565b610b0167b410eb30dbb6fd5c60c01b612c96565b610b0a82612c99565b610b49576040517f08c379a0000000000000000000000000000000000000000000000000000000008152600401610b4090615448565b60405180910390fd5b610b5d67ea3da4e7018fd3e460c01b612c96565b610b7167f8139b95aa40bd9f60c01b612c96565b610b8567c89c9a994b90506460c01b612c96565b6004600083815260200190815260200160002060009054906101000a900473ffffffffffffffffffffffffffffffffffffffff169050919050565b610bd467f2c73ef96e42221760c01b612c96565b610be8678c095ca4e77abf4860c01b612c96565b610bfc67a9d094244e4d744660c01b612c96565b6000610c0782611a11565b9050610c1d67c33928d54a81c05360c01b612c96565b610c31672ba74c046a4f2c0b60c01b612c96565b610c45674ce8508c87128daa60c01b612c96565b8073ffffffffffffffffffffffffffffffffffffffff168373ffffffffffffffffffffffffffffffffffffffff1603610cb3576040517f08c379a0000000000000000000000000000000000000000000000000000000008152600401610caa906154da565b60405180910390fd5b610cc7670baba45f7aeac9d660c01b612c96565b610cdb673b93e03d2e8365ec60c01b612c96565b610cef675232cbe8ef11df4360c01b612c96565b610d03679d004e7e419bad5e60c01b612c96565b8073ffffffffffffffffffffffffffffffffffffffff16610d22612c52565b73ffffffffffffffffffffffffffffffffffffffff16148015610d555750610d546734800c5e2487438f60c01b612d42565b5b80610d895750610d6c81610d67612c52565b6127bd565b8015610d885750610d8767c63b1022838cf74460c01b612d42565b5b5b610dc8576040517f08c379a0000000000000000000000000000000000000000000000000000000008152600401610dbf9061556c565b60405180910390fd5b610ddc671a14147b97bc0e7760c01b612c96565b610df067098dbce7013158c660c01b612c96565b610e0467b879c7354d47a38060c01b612c96565b610e0e8383612d4d565b505050565b600d5481565b6000610e2f67f07e0dec8fdd2ab460c01b612ab0565b610e436797d586ea9b9fd42460c01b612ab0565b610e5767accf1f80376461c160c01b612ab0565b600880549050905090565b600f5481565b610e7c679b00136e78d9bbb960c01b612c96565b610e9067ba1b34078665819a60c01b612c96565b610ea46753305f9573a9642960c01b612c96565b610eb867c3bb2aee4352fb1960c01b612c96565b610ec9610ec3612c52565b82612e56565b610f08576040517f08c379a0000000000000000000000000000000000000000000000000000000008152600401610eff906155fe565b60405180910390fd5b610f1c67fa8cbee53b8834ca60c01b612c96565b610f306770b28a15f02354a460c01b612c96565b610f446743191f78caeb31da60c01b612c96565b610f4f838383613058565b505050565b6000610f6a6761c64d1bc363178960c01b612ab0565b610f7e67675ff8b782512c3260c01b612ab0565b610f9267aec5baf2dab98f7360c01b612ab0565b610fa667f411dc3b5984698e60c01b612ab0565b610faf83611c05565b8210610ff0576040517f08c379a0000000000000000000000000000000000000000000000000000000008152600401610fe790615690565b60405180910390fd5b61100467228135ac8debe04760c01b612ab0565b611018673c61d01317ad2aed60c01b612ab0565b61102c67bfd0c9396d9b439660c01b612ab0565b600660008473ffffffffffffffffffffffffffffffffffffffff1673ffffffffffffffffffffffffffffffffffffffff168152602001908152602001600020600083815260200190815260200160002054905092915050565b6110996730bbe15da091136c60c01b612c4c565b6110ad679a32e161a80ed7c160c01b612c4f565b6110c16733749b419ec36d5f60c01b612c4f565b6110d567575f11c04ee007d460c01b612c4f565b6110e9671e5add8cb0d8e63860c01b612c4f565b6110f1612c52565b73ffffffffffffffffffffffffffffffffffffffff1661110f611ffb565b73ffffffffffffffffffffffffffffffffffffffff1614611165576040517f08c379a000000000000000000000000000000000000000000000000000000000815260040161115c90615356565b60405180910390fd5b61117967c0aaef80eace722a60c01b612c4f565b61118d675553c0283d815f4d60c01b612c4f565b6111a167a2848da323a85df660c01b612c4c565b6111b567d1e3543f81b0502d60c01b612c4c565b6111c9671515e431ba5c0a6460c01b612c4c565b6111dd6770233f4bf706cc8060c01b612c4c565b6111f1677b7c55087017d4b160c01b612c4c565b3373ffffffffffffffffffffffffffffffffffffffff166108fc479081150290604051600060405180830381858888f1935050505061122f57600080fd5b61124367a288aa9dc46d957360c01b612c4c565b565b61125967ad00de032f299d4960c01b612c4c565b61126d679eb3efd01163a37360c01b612c4c565b61128167ed5c26cbb9d96dfb60c01b612c4c565b600061128b610e19565b90506112a1673fdd1aaeb63962a460c01b612c4c565b6112b56766e9c2f62119bd9560c01b612c4c565b6112c967828f9b4f1e4dcc7560c01b612c4c565b601060009054906101000a900460ff16156112e357600080fd5b6112f7678dd7b7ee575b4f7560c01b612c4c565b61130b676f8b2d8eb380c3c460c01b612c4c565b61131f67676f7be7142d209160c01b612c4c565b611333676178f5a868eb7b9960c01b612c4c565b6000821161134057600080fd5b61135467f8419ba9e1a35cc960c01b612c4c565b61136867b88faa887a4c849360c01b612c4c565b61137c67eaec06d53928802160c01b612c4c565b61139067ae151df104d0625760c01b612c4c565b600f5482111561139f57600080fd5b6113b367a2d74d195f08a04a60c01b612c4c565b6113c7674a323e5d82d6570b60c01b612c4c565b6113db67e197ef665417ce8160c01b612c4c565b6113ef67c4d1b8863ba2857860c01b612c4c565b600e5482826113fe91906156df565b111561140957600080fd5b61141d676b0c49e7b2c69a4960c01b612c4c565b61143167671a4fffbe9f9ab260c01b612c4c565b611445675fadcdfbf21ade7360c01b612c4c565b61144d611ffb565b73ffffffffffffffffffffffffffffffffffffffff163373ffffffffffffffffffffffffffffffffffffffff16146115375761149367249367f78da5e2d660c01b612c4c565b6114a76749c277801c0809b560c01b612c4c565b6114bb677bca4c4c21fd616860c01b612c4c565b6114cf67c596e3c48644e33560c01b612c4c565b81600d546114dd9190615713565b341461151e576040517f08c379a0000000000000000000000000000000000000000000000000000000008152600401611515906157a1565b60405180910390fd5b61153267957d7c2760c052e360c01b612c4c565b61154c565b61154b67cf2aa1b81a59c20a60c01b612c4c565b5b611560672a633813660791fa60c01b612c4c565b611574670c8e73289a90db3060c01b612c4c565b6000600190505b8281116115d257611596676c4702467498c9a560c01b612c4c565b6115aa6717b05b2a860eac3b60c01b612c4c565b6115bf8482846115ba91906156df565b61341a565b80806115ca906157c1565b91505061157b565b50505050565b6115ec67056f7d5551f1720160c01b612c96565b61160067b1526b9e4123293b60c01b612c96565b61161467b6df962c752423b360c01b612c96565b61162f8383836040518060200160405280600081525061234f565b505050565b606061164a67abaa4cb200413f9a60c01b612c4c565b61165e67dc0b3517688f1b2660c01b612c4c565b611672676c5602a72e6b757e60c01b612c4c565b600061167d83611c05565b90506116936705ef29385432e8ce60c01b612c4c565b6116a7678adeac1d37eb713160c01b612c4c565b60008167ffffffffffffffff8111156116c3576116c2614ff2565b5b6040519080825280602002602001820160405280156116f15781602001602082028036833780820191505090505b50905061170867e170cd976924dc8e60c01b612c4c565b61171c679c1d70452dedd61360c01b612c4c565b60005b828110156117775761173b67e0d6c2de7da5c04260c01b612c4c565b6117458582610f54565b82828151811061175857611757615809565b5b602002602001018181525050808061176f906157c1565b91505061171f565b5061178c67beca5a3780d66d9d60c01b612c4c565b6117a067d2fa3f190283bddc60c01b612c4c565b8092505050919050565b60006117c067205cca444f8d1f4760c01b612ab0565b6117d46709826a3b6c631f5360c01b612ab0565b6117e8677d5bb7dbdd8345f860c01b612ab0565b6117fc67ab970c70c220125560c01b612ab0565b611804610e19565b8210611845576040517f08c379a000000000000000000000000000000000000000000000000000000000815260040161183c906158aa565b60405180910390fd5b61185967b9d80c7017edd4f760c01b612ab0565b61186d672a26e3693724281d60c01b612ab0565b61188167834842cab609051960c01b612ab0565b6008828154811061189557611894615809565b5b90600052602060002001549050919050565b6118bb67f1355e7d3dfa7a0760c01b612c4c565b6118cf679a32e161a80ed7c160c01b612c4f565b6118e36733749b419ec36d5f60c01b612c4f565b6118f767575f11c04ee007d460c01b612c4f565b61190b671e5add8cb0d8e63860c01b612c4f565b611913612c52565b73ffffffffffffffffffffffffffffffffffffffff16611931611ffb565b73ffffffffffffffffffffffffffffffffffffffff1614611987576040517f08c379a000000000000000000000000000000000000000000000000000000000815260040161197e90615356565b60405180910390fd5b61199b67c0aaef80eace722a60c01b612c4f565b6119af675553c0283d815f4d60c01b612c4f565b6119c3670dab59c797c3c4e360c01b612c4c565b6119d767091caa4d9ede4b0b60c01b612c4c565b6119eb67d80715c456b36dc760c01b612c4c565b80600b90816119fa9190615a76565b5050565b601060009054906101000a900460ff1681565b6000611a27671b7e728b69b548ec60c01b612c96565b611a3b679717678c69ebcc1b60c01b612c96565b611a4f67b45d06fbf1fabeb460c01b612c96565b60006002600084815260200190815260200160002060009054906101000a900473ffffffffffffffffffffffffffffffffffffffff169050611a9b672ac9dd2fbb201a1960c01b612c96565b611aaf67b384340ca9af461460c01b612c96565b611ac36711e518b715ded37860c01b612c96565b600073ffffffffffffffffffffffffffffffffffffffff168173ffffffffffffffffffffffffffffffffffffffff1603611b32576040517f08c379a0000000000000000000000000000000000000000000000000000000008152600401611b2990615bba565b60405180910390fd5b611b4667952c9a2bb320a5b560c01b612c96565b611b5a67b1ec2334edbdcdbc60c01b612c96565b611b6e67aec2fcd2a3f28b3a60c01b612c96565b80915050919050565b600b8054611b84906153a5565b80601f0160208091040260200160405190810160405280929190818152602001828054611bb0906153a5565b8015611bfd5780601f10611bd257610100808354040283529160200191611bfd565b820191906000526020600020905b815481529060010190602001808311611be057829003601f168201915b505050505081565b6000611c1b676e81a3f2b26c848460c01b612c96565b611c2f6732514fdaa54b9b7460c01b612c96565b611c43670d5d45adac5b54e860c01b612c96565b611c57674f6a9b9dfb2c7cd360c01b612c96565b600073ffffffffffffffffffffffffffffffffffffffff168273ffffffffffffffffffffffffffffffffffffffff1603611cc6576040517f08c379a0000000000000000000000000000000000000000000000000000000008152600401611cbd90615c4c565b60405180910390fd5b611cda67518f45a723b8a18960c01b612c96565b611cee67b7e86b0219ee404b60c01b612c96565b611d0267af5e9af25538298160c01b612c96565b600360008373ffffffffffffffffffffffffffffffffffffffff1673ffffffffffffffffffffffffffffffffffffffff168152602001908152602001600020549050919050565b611d5d67a2ced20ece86683a60c01b612c4f565b611d71679a32e161a80ed7c160c01b612c4f565b611d856733749b419ec36d5f60c01b612c4f565b611d9967575f11c04ee007d460c01b612c4f565b611dad671e5add8cb0d8e63860c01b612c4f565b611db5612c52565b73ffffffffffffffffffffffffffffffffffffffff16611dd3611ffb565b73ffffffffffffffffffffffffffffffffffffffff1614611e29576040517f08c379a0000000000000000000000000000000000000000000000000000000008152600401611e2090615356565b60405180910390fd5b611e3d67c0aaef80eace722a60c01b612c4f565b611e51675553c0283d815f4d60c01b612c4f565b611e656705eb26190316718960c01b612c4f565b611e79677e21993c7b39d4e460c01b612c4f565b611e8d67f544e78d6954f9d460c01b612c4f565b611ea167a773986d7756a42c60c01b612c4f565b611eab6000613474565b565b611ec1675aee79ab614a713b60c01b612c4c565b611ed5679a32e161a80ed7c160c01b612c4f565b611ee96733749b419ec36d5f60c01b612c4f565b611efd67575f11c04ee007d460c01b612c4f565b611f11671e5add8cb0d8e63860c01b612c4f565b611f19612c52565b73ffffffffffffffffffffffffffffffffffffffff16611f37611ffb565b73ffffffffffffffffffffffffffffffffffffffff1614611f8d576040517f08c379a0000000000000000000000000000000000000000000000000000000008152600401611f8490615356565b60405180910390fd5b611fa167c0aaef80eace722a60c01b612c4f565b611fb5675553c0283d815f4d60c01b612c4f565b611fc967547442e441fcbd7e60c01b612c4c565b611fdd67eb3c30b28bd9712f60c01b612c4c565b611ff167bb8e011ea818216460c01b612c4c565b80600f8190555050565b60006120116798c0e6daaed1fefc60c01b612c4f565b612025678ba8d00fe61419f760c01b612c4f565b6120396766875fa2d0e2fc2d60c01b612c4f565b600a60009054906101000a900473ffffffffffffffffffffffffffffffffffffffff16905090565b606061207767a7fe1e977cfd96df60c01b612c96565b61208b6794e38413d422778e60c01b612c96565b61209f679deedc49493fe43860c01b612c96565b600180546120ac906153a5565b80601f01602080910402602001604051908101604052809291908181526020018280546120d8906153a5565b80156121255780601f106120fa57610100808354040283529160200191612125565b820191906000526020600020905b81548152906001019060200180831161210857829003601f168201915b5050505050905090565b612143677b0a31c8a740f7d460c01b612c96565b61215767b2039a30587fc24960c01b612c96565b61216b67f3d06849ccf4cbf160c01b612c96565b61217f678925973c3f7547e560c01b612c96565b612187612c52565b73ffffffffffffffffffffffffffffffffffffffff168273ffffffffffffffffffffffffffffffffffffffff16036121f4576040517f08c379a00000000000000000000000000000000000000000000000000000000081526004016121eb90615cb8565b60405180910390fd5b612208676eebb3943ef2a4ad60c01b612c96565b61221c672a931c85f440a68b60c01b612c96565b8060056000612229612c52565b73ffffffffffffffffffffffffffffffffffffffff1673ffffffffffffffffffffffffffffffffffffffff16815260200190815260200160002060008473ffffffffffffffffffffffffffffffffffffffff1673ffffffffffffffffffffffffffffffffffffffff16815260200190815260200160002060006101000a81548160ff0219169083151502179055506122cb67d8292f7f4e0bab4560c01b612c96565b6122df677f66450e214d591960c01b612c96565b8173ffffffffffffffffffffffffffffffffffffffff166122fe612c52565b73ffffffffffffffffffffffffffffffffffffffff167f17307eab39ab6107e8899845ad3d59bd9653f200f220920489ca2b5937696c31836040516123439190614c0d565b60405180910390a35050565b61236367ee64099bd543e02160c01b612c96565b6123776759861855e4765c3260c01b612c96565b61238b678f26f5543d83c5e760c01b612c96565b61239f67ce918eb07adf1ed260c01b612c96565b6123b06123aa612c52565b83612e56565b6123ef576040517f08c379a00000000000000000000000000000000000000000000000000000000081526004016123e6906155fe565b60405180910390fd5b6124036742906a89a191500f60c01b612c96565b61241767cbaedc71be126ddf60c01b612c96565b61242b67986ba31f6430a3aa60c01b612c96565b612437848484846135b2565b50505050565b600c805461244a906153a5565b80601f0160208091040260200160405190810160405280929190818152602001828054612476906153a5565b80156124c35780601f10612498576101008083540402835291602001916124c3565b820191906000526020600020905b8154815290600101906020018083116124a657829003601f168201915b505050505081565b60606124e167fa3a728c0efcbbbf60c01b612c4c565b6124f5679ddc6b127df138a660c01b612c4c565b612509679290fe5b8ccf0ab760c01b612c4c565b61251d673ce90e82363bd2e260c01b612c4c565b61252682612c99565b612565576040517f08c379a000000000000000000000000000000000000000000000000000000000815260040161255c90615d4a565b60405180910390fd5b612579675d72ad5d89c32cef60c01b612c4c565b61258d675a599eb51fd4d21a60c01b612c4c565b6125a167acfe1adf1eca0eee60c01b612c4c565b60006125ab61369a565b90506125c16786618095febc14f860c01b612c4c565b6125d567e4262f511b4a3b0d60c01b612c4c565b6000815111806125f557506125f467274f7493b54c6e9160c01b6136f6565b5b801561261157506126106733dde9be6a87abd260c01b6136fd565b5b61262a5760405180602001604052806000815250612658565b8061263484613708565b600c60405160200161264893929190615e29565b6040516020818303038152906040525b915050919050565b600e5481565b61267a671bdf6d9a31a9707960c01b612c4c565b61268e679a32e161a80ed7c160c01b612c4f565b6126a26733749b419ec36d5f60c01b612c4f565b6126b667575f11c04ee007d460c01b612c4f565b6126ca671e5add8cb0d8e63860c01b612c4f565b6126d2612c52565b73ffffffffffffffffffffffffffffffffffffffff166126f0611ffb565b73ffffffffffffffffffffffffffffffffffffffff1614612746576040517f08c379a000000000000000000000000000000000000000000000000000000000815260040161273d90615356565b60405180910390fd5b61275a67c0aaef80eace722a60c01b612c4f565b61276e675553c0283d815f4d60c01b612c4f565b61278267a32a6eb2b41e8afa60c01b612c4c565b612796676acea3e21694f50760c01b612c4c565b6127aa677722cbe2bd059d6760c01b612c4c565b80600c90816127b99190615a76565b5050565b60006127d36738eaacf9a73a27c360c01b612c96565b6127e7673ee17deab83dd07460c01b612c96565b6127fb67f07cdbcf90dc63de60c01b612c96565b600560008473ffffffffffffffffffffffffffffffffffffffff1673ffffffffffffffffffffffffffffffffffffffff16815260200190815260200160002060008373ffffffffffffffffffffffffffffffffffffffff1673ffffffffffffffffffffffffffffffffffffffff16815260200190815260200160002060009054906101000a900460ff16905092915050565b6128a16713586d3cdcd3399160c01b612c4f565b6128b5679a32e161a80ed7c160c01b612c4f565b6128c96733749b419ec36d5f60c01b612c4f565b6128dd67575f11c04ee007d460c01b612c4f565b6128f1671e5add8cb0d8e63860c01b612c4f565b6128f9612c52565b73ffffffffffffffffffffffffffffffffffffffff16612917611ffb565b73ffffffffffffffffffffffffffffffffffffffff161461296d576040517f08c379a000000000000000000000000000000000000000000000000000000000815260040161296490615356565b60405180910390fd5b61298167c0aaef80eace722a60c01b612c4f565b612995675553c0283d815f4d60c01b612c4f565b6129a9670637046bbaf2de4f60c01b612c4f565b6129bd673a4554f992c211ae60c01b612c4f565b6129d167b175d231d05ce80560c01b612c4f565b6129e567507fb781353cf7f160c01b612c4f565b6129f96721cb0ae1ba42ef3e60c01b612c4f565b600073ffffffffffffffffffffffffffffffffffffffff168173ffffffffffffffffffffffffffffffffffffffff1603612a68576040517f08c379a0000000000000000000000000000000000000000000000000000000008152600401612a5f90615ecc565b60405180910390fd5b612a7c67914b88f11e8ea63060c01b612c4f565b612a90673312ad2925cbcc5d60c01b612c4f565b612aa4672319efb3ef69c43260c01b612c4f565b612aad81613474565b50565b50565b600060019050919050565b6000612ad4679058153c0c89aa6860c01b612c96565b612ae867f3543c56afc4f58c60c01b612c96565b612afc67aadf14abcde2c8a860c01b612c96565b7f80ac58cd000000000000000000000000000000000000000000000000000000007bffffffffffffffffffffffffffffffffffffffffffffffffffffffff1916827bffffffffffffffffffffffffffffffffffffffffffffffffffffffff1916148015612b795750612b786783b6ff0fd178f82660c01b612d42565b5b80612c1957507f5b5e139f000000000000000000000000000000000000000000000000000000007bffffffffffffffffffffffffffffffffffffffffffffffffffffffff1916827bffffffffffffffffffffffffffffffffffffffffffffffffffffffff1916148015612bfc5750612bfb673ac6360b3f95637d60c01b612d42565b5b8015612c185750612c1767cbd7b5df212bc59660c01b612d42565b5b5b80612c455750612c2882613a48565b8015612c445750612c43672655e01a142a966260c01b612d42565b5b5b9050919050565b50565b50565b6000612c68671481bf2910848b7160c01b613aee565b612c7c674417a71d3106809360c01b613aee565b612c90677d2438954c7feb1960c01b613aee565b33905090565b50565b6000612caf676ac37dcf3437c1ad60c01b612c96565b612cc367282c3d1f1e02f1dd60c01b612c96565b612cd767c05e77660ba7f1c460c01b612c96565b600073ffffffffffffffffffffffffffffffffffffffff166002600084815260200190815260200160002060009054906101000a900473ffffffffffffffffffffffffffffffffffffffff1673ffffffffffffffffffffffffffffffffffffffff1614159050919050565b600060019050919050565b612d616706c3f20e13e1ccb560c01b612c96565b612d7567e012a939ee67047a60c01b612c96565b816004600083815260200190815260200160002060006101000a81548173ffffffffffffffffffffffffffffffffffffffff021916908373ffffffffffffffffffffffffffffffffffffffff160217905550612ddb67e117e6acf16a344960c01b612c96565b612def678dbd16fb62ddc56860c01b612c96565b808273ffffffffffffffffffffffffffffffffffffffff16612e1083611a11565b73ffffffffffffffffffffffffffffffffffffffff167f8c5be1e5ebec7d5bd14f71427d1e84f3dd0314c0f7b2291e5b200ac8c7c3b92560405160405180910390a45050565b6000612e6c67f0e079e44c7e357e60c01b612c96565b612e80675a297c4aad3c385460c01b612c96565b612e9467505608cae594e79460c01b612c96565b612ea8673306a598f6c0c1b260c01b612c96565b612eb182612c99565b612ef0576040517f08c379a0000000000000000000000000000000000000000000000000000000008152600401612ee790615f5e565b60405180910390fd5b612f046782748d14f2c7978c60c01b612c96565b612f18672daa13f33bce0b1060c01b612c96565b612f2c670d06d99d2eadad7c60c01b612c96565b6000612f3783611a11565b9050612f4d675bf0a416927e7b4c60c01b612c96565b612f61671b1f7f9269c4570a60c01b612c96565b8073ffffffffffffffffffffffffffffffffffffffff168473ffffffffffffffffffffffffffffffffffffffff16148015612fac5750612fab67861b51ea38cdc7af60c01b612d42565b5b8061302257508373ffffffffffffffffffffffffffffffffffffffff16612fd284610aaf565b73ffffffffffffffffffffffffffffffffffffffff16148015613005575061300467dbf29c397190544f60c01b612d42565b5b8015613021575061302067c0d6fa74aa3a785160c01b612d42565b5b5b8061304f575061303281856127bd565b801561304e575061304d67b9534df6e65d710960c01b612d42565b5b5b91505092915050565b61306c67f1d10ccee8e5442260c01b612c96565b61308067828c10f610465b9360c01b612c96565b613094679ed5dc504758d08e60c01b612c96565b6130a867691ce6de214a898460c01b612c96565b8273ffffffffffffffffffffffffffffffffffffffff166130c882611a11565b73ffffffffffffffffffffffffffffffffffffffff161461311e576040517f08c379a000000000000000000000000000000000000000000000000000000000815260040161311590615ff0565b60405180910390fd5b61313267735f56d3afd9654660c01b612c96565b613145660965152d3f587660c01b612c96565b61315967c84e0d538591af2a60c01b612c96565b61316d67f119cb29b076681260c01b612c96565b600073ffffffffffffffffffffffffffffffffffffffff168273ffffffffffffffffffffffffffffffffffffffff16036131dc576040517f08c379a00000000000000000000000000000000000000000000000000000000081526004016131d390616082565b60405180910390fd5b6131f067425f0c38f134a17160c01b612c96565b613204673149cf776a43920760c01b612c96565b61321867eba1cdcc8f9ddf0560c01b612c96565b613223838383613af1565b613237677d79cf12279c6e6160c01b612c96565b61324b6790d9b4db50e1a66b60c01b612c96565b613256600082612d4d565b61326a67ef8ce34efa300d8060c01b612c96565b6001600360008573ffffffffffffffffffffffffffffffffffffffff1673ffffffffffffffffffffffffffffffffffffffff16815260200190815260200160002060008282546132ba91906160a2565b925050819055506132d567a094e59f5727dc3d60c01b612c96565b6001600360008473ffffffffffffffffffffffffffffffffffffffff1673ffffffffffffffffffffffffffffffffffffffff168152602001908152602001600020600082825461332591906156df565b925050819055506133406727ff2870c7d8a46e60c01b612c96565b816002600083815260200190815260200160002060006101000a81548173ffffffffffffffffffffffffffffffffffffffff021916908373ffffffffffffffffffffffffffffffffffffffff1602179055506133a66722546dd73a55456b60c01b612c96565b6133ba679c4e821ea9dbe4fe60c01b612c96565b808273ffffffffffffffffffffffffffffffffffffffff168473ffffffffffffffffffffffffffffffffffffffff167fddf252ad1be2c89b69c2b068fc378daa952ba7f163c4a11628f55a4df523b3ef60405160405180910390a4505050565b61342e67eaed7bcc83e60a2e60c01b612c96565b61344267c2fd137471ae67c560c01b612c96565b613456679f9eb8ecec73b87760c01b612c96565b613470828260405180602001604052806000815250613e01565b5050565b61348867d820dbadcdef6f9d60c01b612c4f565b61349c67744ad8cb087e55c860c01b612c4f565b6134b0670877ccfcb575671960c01b612c4f565b6000600a60009054906101000a900473ffffffffffffffffffffffffffffffffffffffff1690506134eb677fcb47b897dc9e5c60c01b612c4f565b81600a60006101000a81548173ffffffffffffffffffffffffffffffffffffffff021916908373ffffffffffffffffffffffffffffffffffffffff16021790555061354067dafa91662ac7710f60c01b612c4f565b61355467e5987a1106a6007d60c01b612c4f565b8173ffffffffffffffffffffffffffffffffffffffff168173ffffffffffffffffffffffffffffffffffffffff167f8be0079c531659141344cd1fd0a4f28419497f9722a3daafe3b4186f6b6457e060405160405180910390a35050565b6135c667d9d1c74e0646999560c01b612c96565b6135da679832b0cebbf082ef60c01b612c96565b6135ee67f1af430ea889568460c01b612c96565b6135f9848484613058565b61360d677bb221f60620793460c01b612c96565b61362167c9930cd36e7763d160c01b612c96565b613635676e39cdb642818f9660c01b612c96565b61364184848484613ee8565b613680576040517f08c379a000000000000000000000000000000000000000000000000000000000815260040161367790616148565b60405180910390fd5b61369467e58b3af4caf61ad860c01b612c96565b50505050565b60606136b067bf38598dcba2aab560c01b612c4c565b6136c46755250a459f5a281060c01b612c4c565b6136d8678c6d29b1d7b1026b60c01b612c4c565b6040518060600160405280603681526020016163e460369139905090565b6000919050565b600060019050919050565b606061371e677b235ab665b586ad60c01b6141d7565b6137326725ed67fa5fa1883e60c01b6141d7565b6137466757ac70cc7e9b62e860c01b6141d7565b600082036137c75761376267f8031baf3e2d133f60c01b6141d7565b613776673e0775b87dd7302560c01b6141d7565b61378a6703eb5685e22c913760c01b6141d7565b6040518060400160405280600181526020017f30000000000000000000000000000000000000000000000000000000000000008152509050613a43565b6137db67aebe42df334aabe560c01b6141d7565b6137ef6753b20e6a2f6d773760c01b6141d7565b61380367afda84725c9faedd60c01b6141d7565b600082905061381c670a1aa2a1eb638f7860c01b6141d7565b6138306723f710c5e7dafd9d60c01b6141d7565b6000613846671fb17d3c738d65c560c01b6141d7565b61385a67fc0185da8f6ef05460c01b6141d7565b5b600082146138ad57613877673f9503b2314dd89e60c01b6141d7565b8080613882906157c1565b91505061389967255c9f11aee97ba660c01b6141d7565b600a826138a69190616197565b915061385b565b6138c167a240fa5117e8d0f860c01b6141d7565b6138d56764bed85cb795451e60c01b6141d7565b60008167ffffffffffffffff8111156138f1576138f0614ff2565b5b6040519080825280601f01601f1916602001820160405280156139235781602001600182028036833780820191505090505b50905061393a67369742c2c388eb1360c01b6141d7565b61394e67f7628a766351214360c01b6141d7565b5b60008514613a145761396b674e9ece5be13ae38160c01b6141d7565b60018261397891906160a2565b915061398e67352f54e18e19c0da60c01b6141d7565b600a8561399b91906161c8565b60306139a791906156df565b60f81b8183815181106139bd576139bc615809565b5b60200101907effffffffffffffffffffffffffffffffffffffffffffffffffffffffffffff1916908160001a905350613a0067762d730e40cd242360c01b6141d7565b600a85613a0d9190616197565b945061394f565b613a286735c095d6e7b4d4df60c01b6141d7565b613a3c67380ff4550088551a60c01b6141d7565b8093505050505b919050565b6000613a5e67bc325f84365ad64360c01b6141da565b613a7267e3275754c8fd649a60c01b6141da565b613a8667db3c0d2916c5d04660c01b6141da565b7f01ffc9a7000000000000000000000000000000000000000000000000000000007bffffffffffffffffffffffffffffffffffffffffffffffffffffffff1916827bffffffffffffffffffffffffffffffffffffffffffffffffffffffff1916149050919050565b50565b613b0567aba417e98580168f60c01b612ab0565b613b1967391fd03027cf5dd660c01b612ab0565b613b2d671e84be06597aed4360c01b612ab0565b613b388383836141dd565b613b4c674c831bb065cae61860c01b612ab0565b613b6067754e82d9c8a778fd60c01b612ab0565b600073ffffffffffffffffffffffffffffffffffffffff168373ffffffffffffffffffffffffffffffffffffffff1603613bde57613ba86738658e918f2355c660c01b612ab0565b613bbc67a92f7f66bc75f51960c01b612ab0565b613bd06706a62d6f41ac23cb60c01b612ab0565b613bd9816141f6565b613c9a565b613bf267f50843bccc00408b60c01b612ab0565b613c0667e47d68b95da755ff60c01b612ab0565b8173ffffffffffffffffffffffffffffffffffffffff168373ffffffffffffffffffffffffffffffffffffffff1614613c8457613c4d6772e8903b5fea03d760c01b612ab0565b613c61670308a15d72d38f8f60c01b612ab0565b613c756787ed4c3476156ad260c01b612ab0565b613c7f838261428f565b613c99565b613c986787baf68bdfce25e560c01b612ab0565b5b5b613cae673d9adb0fb2a65bf360c01b612ab0565b613cc2674a420e1b873fb47560c01b612ab0565b600073ffffffffffffffffffffffffffffffffffffffff168273ffffffffffffffffffffffffffffffffffffffff1603613d4057613d0a673fb01124f1f4a7ac60c01b612ab0565b613d1e6714e589a8624a875a60c01b612ab0565b613d3267e07bbe3f37af7aab60c01b612ab0565b613d3b8161452d565b613dfc565b613d546727fdb0fa5d5c714460c01b612ab0565b613d6867bd1fc926a7c1e07d60c01b612ab0565b8273ffffffffffffffffffffffffffffffffffffffff168273ffffffffffffffffffffffffffffffffffffffff1614613de657613daf67247edeb78f221d6960c01b612ab0565b613dc367e2872eaf331d3f2660c01b612ab0565b613dd767106695e4c778279260c01b612ab0565b613de182826146ee565b613dfb565b613dfa67ba2d4f0124a9e19560c01b612ab0565b5b5b505050565b613e1567793e83901cd5db3660c01b612c96565b613e296755a9487459b6022060c01b612c96565b613e3d677cf5f46e4c67891660c01b612c96565b613e4783836147d1565b613e5b6753b48a1bb5a5163c60c01b612c96565b613e6f670ea78cb7fb1678a060c01b612c96565b613e83674be987851665229660c01b612c96565b613e906000848484613ee8565b613ecf576040517f08c379a0000000000000000000000000000000000000000000000000000000008152600401613ec690616148565b60405180910390fd5b613ee367de84b0269cb64a3f60c01b612c96565b505050565b6000613efe67f8b402213291262b60c01b612c96565b613f12670da3cce147db641660c01b612c96565b613f26673e1a47e06a6265da60c01b612c96565b613f458473ffffffffffffffffffffffffffffffffffffffff16614aca565b1561418e57613f5e670d3a27b56c91b9ca60c01b612c96565b613f7267893fceb8b2a1d84c60c01b612c96565b613f8667c9fc71f92925ebe060c01b612c96565b8373ffffffffffffffffffffffffffffffffffffffff1663150b7a02613faa612c52565b8786866040518563ffffffff1660e01b8152600401613fcc949392919061624e565b6020604051808303816000875af192505050801561400857506040513d601f19601f8201168201806040525081019061400591906162af565b60015b614116573d8060008114614038576040519150601f19603f3d011682016040523d82523d6000602084013e61403d565b606091505b5061405267a554b87f5cc504c960c01b612c96565b61406667112d0a42de9cfe8460c01b612c96565b60008151036140e657614083674e8d4cdec290d87f60c01b612c96565b6140976797c9944605b1ec5260c01b612c96565b6140ab672a7c3ea1d5259e6c60c01b612c96565b6040517f08c379a00000000000000000000000000000000000000000000000000000000081526004016140dd90616148565b60405180910390fd5b6140fa6799ccbbc595cf7fb660c01b612c96565b61410e67277caf64fcf0635d60c01b612c96565b805181602001fd5b61412a67b3022ebb1fe0931760c01b612c96565b61413e672a12603f92c9b64660c01b612c96565b63150b7a0260e01b7bffffffffffffffffffffffffffffffffffffffffffffffffffffffff1916817bffffffffffffffffffffffffffffffffffffffffffffffffffffffff1916149150506141cf565b6141a2673d7184e73cb0964860c01b612c96565b6141b667b80edebe5eb9afa860c01b612c96565b6141ca6763544f276a1951c160c01b612c96565b600190505b949350505050565b50565b50565b6141f1672f78f3363a4ad4f960c01b612c96565b505050565b61420a67dee5c09ff050cd2360c01b612ab0565b61421e674ca4122e3196477860c01b612ab0565b600880549050600960008381526020019081526020016000208190555061424f67a8780b52b4a128c660c01b612ab0565b6142636751f893fe82e43dd460c01b612ab0565b600881908060018154018082558091505060019003906000526020600020016000909190919091505550565b6142a367c0ca9ee3aa26082260c01b612ab0565b6142b767e2533a8fac05f97460c01b612ab0565b6142cb67c5aaef19eca58f0e60c01b612ab0565b600060016142d884611c05565b6142e291906160a2565b90506142f8675a417ff61349786160c01b612ab0565b61430c672964a7658a08c21360c01b612ab0565b600060076000848152602001908152602001600020549050614338677ffef78765cbeac560c01b612ab0565b61434c67537d5e4cefae9f6e60c01b612ab0565b81811461447f576143676750dc7d3cbd4e415460c01b612ab0565b61437b671b43904d6daea49260c01b612ab0565b61438f67e9dc7ff121654c9a60c01b612ab0565b6000600660008673ffffffffffffffffffffffffffffffffffffffff1673ffffffffffffffffffffffffffffffffffffffff16815260200190815260200160002060008481526020019081526020016000205490506143f867ccf7abe98d3f169d60c01b612ab0565b80600660008773ffffffffffffffffffffffffffffffffffffffff1673ffffffffffffffffffffffffffffffffffffffff168152602001908152602001600020600084815260200190815260200160002081905550614461678abcf0a74333d6fc60c01b612ab0565b81600760008381526020019081526020016000208190555050614494565b61449367d233722b1c53eae560c01b612ab0565b5b6144a867d84a9e3b7ba8804560c01b612ab0565b60076000848152602001908152602001600020600090556144d36709615f5d1c06004e60c01b612ab0565b600660008573ffffffffffffffffffffffffffffffffffffffff1673ffffffffffffffffffffffffffffffffffffffff16815260200190815260200160002060008381526020019081526020016000206000905550505050565b61454167a440f482aeb54fa960c01b612ab0565b61455567f7ef1179c53a418160c01b612ab0565b6145696736855b7c897b584460c01b612ab0565b6000600160088054905061457d91906160a2565b905061459367ac1cb35dc95cd50c60c01b612ab0565b6145a767d4b9d7d96eb64cb460c01b612ab0565b6000600960008481526020019081526020016000205490506145d367896d6a4fafd49c0860c01b612ab0565b6145e76725d8405113db842f60c01b612ab0565b6000600883815481106145fd576145fc615809565b5b9060005260206000200154905061461e67d3e2649d8f36b86060c01b612ab0565b806008838154811061463357614632615809565b5b90600052602060002001819055506146556707be70c81a9aae2f60c01b612ab0565b81600960008381526020019081526020016000208190555061468167e05a6eeceb8a840760c01b612ab0565b60096000858152602001908152602001600020600090556146ac67b63d1a584a3fba2b60c01b612ab0565b6146c067db0cdda47f9e067660c01b612ab0565b60088054806146d2576146d16162dc565b5b6001900381819060005260206000200160009055905550505050565b614702678b52a6cc7fc3e3fb60c01b612ab0565b6147166775fe4f6a62da148160c01b612ab0565b61472a67c1aab7a5367155ff60c01b612ab0565b600061473583611c05565b905061474b67b603cbec984c387560c01b612ab0565b81600660008573ffffffffffffffffffffffffffffffffffffffff1673ffffffffffffffffffffffffffffffffffffffff1681526020019081526020016000206000838152602001908152602001600020819055506147b4674bf98288dfe18c3d60c01b612ab0565b806007600084815260200190815260200160002081905550505050565b6147e567f4c085b25898088360c01b612c96565b6147f967068bfe489f17240360c01b612c96565b61480d67eee2f16a219c237460c01b612c96565b6148216734601d397ac1d1de60c01b612c96565b600073ffffffffffffffffffffffffffffffffffffffff168273ffffffffffffffffffffffffffffffffffffffff1603614890576040517f08c379a000000000000000000000000000000000000000000000000000000000815260040161488790616357565b60405180910390fd5b6148a46728c55e0d9c238a7260c01b612c96565b6148b86789cce13e8f05ac6660c01b612c96565b6148cc67209f3ac76cabb6d760c01b612c96565b6148e067b1d62c28cb287b6f60c01b612c96565b6148e981612c99565b15614929576040517f08c379a0000000000000000000000000000000000000000000000000000000008152600401614920906163c3565b60405180910390fd5b61493d6755b116eb9052986f60c01b612c96565b6149516786695d3d1cae8ab660c01b612c96565b61496567c70453dd7f8284c060c01b612c96565b61497160008383613af1565b614985670cd47c5378838def60c01b612c96565b6001600360008473ffffffffffffffffffffffffffffffffffffffff1673ffffffffffffffffffffffffffffffffffffffff16815260200190815260200160002060008282546149d591906156df565b925050819055506149f067ebd2eada420b3aaf60c01b612c96565b816002600083815260200190815260200160002060006101000a81548173ffffffffffffffffffffffffffffffffffffffff021916908373ffffffffffffffffffffffffffffffffffffffff160217905550614a56674a05184e033ec19b60c01b612c96565b614a6a678874ab71fdb416a360c01b612c96565b808273ffffffffffffffffffffffffffffffffffffffff16600073ffffffffffffffffffffffffffffffffffffffff167fddf252ad1be2c89b69c2b068fc378daa952ba7f163c4a11628f55a4df523b3ef60405160405180910390a45050565b6000614ae0672b3d8a0c6b967a0d60c01b614b56565b614af4675e9e0f88178d9c0d60c01b614b56565b614b086739e1547516e2b9ad60c01b614b56565b6000614b1e677a945b4801fb75c160c01b614b56565b823b9050614b36677238ee845617bca060c01b614b56565b614b4a677536819b37459ecc60c01b614b56565b60008111915050919050565b50565b6000604051905090565b600080fd5b600080fd5b60007fffffffff0000000000000000000000000000000000000000000000000000000082169050919050565b614ba281614b6d565b8114614bad57600080fd5b50565b600081359050614bbf81614b99565b92915050565b600060208284031215614bdb57614bda614b63565b5b6000614be984828501614bb0565b91505092915050565b60008115159050919050565b614c0781614bf2565b82525050565b6000602082019050614c226000830184614bfe565b92915050565b614c3181614bf2565b8114614c3c57600080fd5b50565b600081359050614c4e81614c28565b92915050565b600060208284031215614c6a57614c69614b63565b5b6000614c7884828501614c3f565b91505092915050565b600081519050919050565b600082825260208201905092915050565b60005b83811015614cbb578082015181840152602081019050614ca0565b60008484015250505050565b6000601f19601f8301169050919050565b6000614ce382614c81565b614ced8185614c8c565b9350614cfd818560208601614c9d565b614d0681614cc7565b840191505092915050565b60006020820190508181036000830152614d2b8184614cd8565b905092915050565b6000819050919050565b614d4681614d33565b8114614d5157600080fd5b50565b600081359050614d6381614d3d565b92915050565b600060208284031215614d7f57614d7e614b63565b5b6000614d8d84828501614d54565b91505092915050565b600073ffffffffffffffffffffffffffffffffffffffff82169050919050565b6000614dc182614d96565b9050919050565b614dd181614db6565b82525050565b6000602082019050614dec6000830184614dc8565b92915050565b614dfb81614db6565b8114614e0657600080fd5b50565b600081359050614e1881614df2565b92915050565b60008060408385031215614e3557614e34614b63565b5b6000614e4385828601614e09565b9250506020614e5485828601614d54565b9150509250929050565b614e6781614d33565b82525050565b6000602082019050614e826000830184614e5e565b92915050565b600080600060608486031215614ea157614ea0614b63565b5b6000614eaf86828701614e09565b9350506020614ec086828701614e09565b9250506040614ed186828701614d54565b9150509250925092565b600060208284031215614ef157614ef0614b63565b5b6000614eff84828501614e09565b91505092915050565b600081519050919050565b600082825260208201905092915050565b6000819050602082019050919050565b614f3d81614d33565b82525050565b6000614f4f8383614f34565b60208301905092915050565b6000602082019050919050565b6000614f7382614f08565b614f7d8185614f13565b9350614f8883614f24565b8060005b83811015614fb9578151614fa08882614f43565b9750614fab83614f5b565b925050600181019050614f8c565b5085935050505092915050565b60006020820190508181036000830152614fe08184614f68565b905092915050565b600080fd5b600080fd5b7f4e487b7100000000000000000000000000000000000000000000000000000000600052604160045260246000fd5b61502a82614cc7565b810181811067ffffffffffffffff8211171561504957615048614ff2565b5b80604052505050565b600061505c614b59565b90506150688282615021565b919050565b600067ffffffffffffffff82111561508857615087614ff2565b5b61509182614cc7565b9050602081019050919050565b82818337600083830152505050565b60006150c06150bb8461506d565b615052565b9050828152602081018484840111156150dc576150db614fed565b5b6150e784828561509e565b509392505050565b600082601f83011261510457615103614fe8565b5b81356151148482602086016150ad565b91505092915050565b60006020828403121561513357615132614b63565b5b600082013567ffffffffffffffff81111561515157615150614b68565b5b61515d848285016150ef565b91505092915050565b6000806040838503121561517d5761517c614b63565b5b600061518b85828601614e09565b925050602061519c85828601614c3f565b9150509250929050565b600067ffffffffffffffff8211156151c1576151c0614ff2565b5b6151ca82614cc7565b9050602081019050919050565b60006151ea6151e5846151a6565b615052565b90508281526020810184848401111561520657615205614fed565b5b61521184828561509e565b509392505050565b600082601f83011261522e5761522d614fe8565b5b813561523e8482602086016151d7565b91505092915050565b6000806000806080858703121561526157615260614b63565b5b600061526f87828801614e09565b945050602061528087828801614e09565b935050604061529187828801614d54565b925050606085013567ffffffffffffffff8111156152b2576152b1614b68565b5b6152be87828801615219565b91505092959194509250565b600080604083850312156152e1576152e0614b63565b5b60006152ef85828601614e09565b925050602061530085828601614e09565b9150509250929050565b7f4f776e61626c653a2063616c6c6572206973206e6f7420746865206f776e6572600082015250565b6000615340602083614c8c565b915061534b8261530a565b602082019050919050565b6000602082019050818103600083015261536f81615333565b9050919050565b7f4e487b7100000000000000000000000000000000000000000000000000000000600052602260045260246000fd5b600060028204905060018216806153bd57607f821691505b6020821081036153d0576153cf615376565b5b50919050565b7f4552433732313a20617070726f76656420717565727920666f72206e6f6e657860008201527f697374656e7420746f6b656e0000000000000000000000000000000000000000602082015250565b6000615432602c83614c8c565b915061543d826153d6565b604082019050919050565b6000602082019050818103600083015261546181615425565b9050919050565b7f4552433732313a20617070726f76616c20746f2063757272656e74206f776e6560008201527f7200000000000000000000000000000000000000000000000000000000000000602082015250565b60006154c4602183614c8c565b91506154cf82615468565b604082019050919050565b600060208201905081810360008301526154f3816154b7565b9050919050565b7f4552433732313a20617070726f76652063616c6c6572206973206e6f74206f7760008201527f6e6572206e6f7220617070726f76656420666f7220616c6c0000000000000000602082015250565b6000615556603883614c8c565b9150615561826154fa565b604082019050919050565b6000602082019050818103600083015261558581615549565b9050919050565b7f4552433732313a207472616e736665722063616c6c6572206973206e6f74206f60008201527f776e6572206e6f7220617070726f766564000000000000000000000000000000602082015250565b60006155e8603183614c8c565b91506155f38261558c565b604082019050919050565b60006020820190508181036000830152615617816155db565b9050919050565b7f455243373231456e756d657261626c653a206f776e657220696e646578206f7560008201527f74206f6620626f756e6473000000000000000000000000000000000000000000602082015250565b600061567a602b83614c8c565b91506156858261561e565b604082019050919050565b600060208201905081810360008301526156a98161566d565b9050919050565b7f4e487b7100000000000000000000000000000000000000000000000000000000600052601160045260246000fd5b60006156ea82614d33565b91506156f583614d33565b925082820190508082111561570d5761570c6156b0565b5b92915050565b600061571e82614d33565b915061572983614d33565b925082820261573781614d33565b9150828204841483151761574e5761574d6156b0565b5b5092915050565b7f4e65656420746f2073656e6420302e3038206574686572210000000000000000600082015250565b600061578b601883614c8c565b915061579682615755565b602082019050919050565b600060208201905081810360008301526157ba8161577e565b9050919050565b60006157cc82614d33565b91507fffffffffffffffffffffffffffffffffffffffffffffffffffffffffffffffff82036157fe576157fd6156b0565b5b600182019050919050565b7f4e487b7100000000000000000000000000000000000000000000000000000000600052603260045260246000fd5b7f455243373231456e756d657261626c653a20676c6f62616c20696e646578206f60008201527f7574206f6620626f756e64730000000000000000000000000000000000000000602082015250565b6000615894602c83614c8c565b915061589f82615838565b604082019050919050565b600060208201905081810360008301526158c381615887565b9050919050565b60008190508160005260206000209050919050565b60006020601f8301049050919050565b600082821b905092915050565b60006008830261592c7fffffffffffffffffffffffffffffffffffffffffffffffffffffffffffffffff826158ef565b61593686836158ef565b95508019841693508086168417925050509392505050565b6000819050919050565b600061597361596e61596984614d33565b61594e565b614d33565b9050919050565b6000819050919050565b61598d83615958565b6159a16159998261597a565b8484546158fc565b825550505050565b600090565b6159b66159a9565b6159c1818484615984565b505050565b5b818110156159e5576159da6000826159ae565b6001810190506159c7565b5050565b601f821115615a2a576159fb816158ca565b615a04846158df565b81016020851015615a13578190505b615a27615a1f856158df565b8301826159c6565b50505b505050565b600082821c905092915050565b6000615a4d60001984600802615a2f565b1980831691505092915050565b6000615a668383615a3c565b9150826002028217905092915050565b615a7f82614c81565b67ffffffffffffffff811115615a9857615a97614ff2565b5b615aa282546153a5565b615aad8282856159e9565b600060209050601f831160018114615ae05760008415615ace578287015190505b615ad88582615a5a565b865550615b40565b601f198416615aee866158ca565b60005b82811015615b1657848901518255600182019150602085019450602081019050615af1565b86831015615b335784890151615b2f601f891682615a3c565b8355505b6001600288020188555050505b505050505050565b7f4552433732313a206f776e657220717565727920666f72206e6f6e657869737460008201527f656e7420746f6b656e0000000000000000000000000000000000000000000000602082015250565b6000615ba4602983614c8c565b9150615baf82615b48565b604082019050919050565b60006020820190508181036000830152615bd381615b97565b9050919050565b7f4552433732313a2062616c616e636520717565727920666f7220746865207a6560008201527f726f206164647265737300000000000000000000000000000000000000000000602082015250565b6000615c36602a83614c8c565b9150615c4182615bda565b604082019050919050565b60006020820190508181036000830152615c6581615c29565b9050919050565b7f4552433732313a20617070726f766520746f2063616c6c657200000000000000600082015250565b6000615ca2601983614c8c565b9150615cad82615c6c565b602082019050919050565b60006020820190508181036000830152615cd181615c95565b9050919050565b7f4552433732314d657461646174613a2055524920717565727920666f72206e6f60008201527f6e6578697374656e7420746f6b656e0000000000000000000000000000000000602082015250565b6000615d34602f83614c8c565b9150615d3f82615cd8565b604082019050919050565b60006020820190508181036000830152615d6381615d27565b9050919050565b600081905092915050565b6000615d8082614c81565b615d8a8185615d6a565b9350615d9a818560208601614c9d565b80840191505092915050565b60008154615db3816153a5565b615dbd8186615d6a565b94506001821660008114615dd85760018114615ded57615e20565b60ff1983168652811515820286019350615e20565b615df6856158ca565b60005b83811015615e1857815481890152600182019150602081019050615df9565b838801955050505b50505092915050565b6000615e358286615d75565b9150615e418285615d75565b9150615e4d8284615da6565b9150819050949350505050565b7f4f776e61626c653a206e6577206f776e657220697320746865207a65726f206160008201527f6464726573730000000000000000000000000000000000000000000000000000602082015250565b6000615eb6602683614c8c565b9150615ec182615e5a565b604082019050919050565b60006020820190508181036000830152615ee581615ea9565b9050919050565b7f4552433732313a206f70657261746f7220717565727920666f72206e6f6e657860008201527f697374656e7420746f6b656e0000000000000000000000000000000000000000602082015250565b6000615f48602c83614c8c565b9150615f5382615eec565b604082019050919050565b60006020820190508181036000830152615f7781615f3b565b9050919050565b7f4552433732313a207472616e73666572206f6620746f6b656e2074686174206960008201527f73206e6f74206f776e0000000000000000000000000000000000000000000000602082015250565b6000615fda602983614c8c565b9150615fe582615f7e565b604082019050919050565b6000602082019050818103600083015261600981615fcd565b9050919050565b7f4552433732313a207472616e7366657220746f20746865207a65726f2061646460008201527f7265737300000000000000000000000000000000000000000000000000000000602082015250565b600061606c602483614c8c565b915061607782616010565b604082019050919050565b6000602082019050818103600083015261609b8161605f565b9050919050565b60006160ad82614d33565b91506160b883614d33565b92508282039050818111156160d0576160cf6156b0565b5b92915050565b7f4552433732313a207472616e7366657220746f206e6f6e20455243373231526560008201527f63656976657220696d706c656d656e7465720000000000000000000000000000602082015250565b6000616132603283614c8c565b915061613d826160d6565b604082019050919050565b6000602082019050818103600083015261616181616125565b9050919050565b7f4e487b7100000000000000000000000000000000000000000000000000000000600052601260045260246000fd5b60006161a282614d33565b91506161ad83614d33565b9250826161bd576161bc616168565b5b828204905092915050565b60006161d382614d33565b91506161de83614d33565b9250826161ee576161ed616168565b5b828206905092915050565b600081519050919050565b600082825260208201905092915050565b6000616220826161f9565b61622a8185616204565b935061623a818560208601614c9d565b61624381614cc7565b840191505092915050565b60006080820190506162636000830187614dc8565b6162706020830186614dc8565b61627d6040830185614e5e565b818103606083015261628f8184616215565b905095945050505050565b6000815190506162a981614b99565b92915050565b6000602082840312156162c5576162c4614b63565b5b60006162d38482850161629a565b91505092915050565b7f4e487b7100000000000000000000000000000000000000000000000000000000600052603160045260246000fd5b7f4552433732313a206d696e7420746f20746865207a65726f2061646472657373600082015250565b6000616341602083614c8c565b915061634c8261630b565b602082019050919050565b6000602082019050818103600083015261637081616334565b9050919050565b7f4552433732313a20746f6b656e20616c7265616479206d696e74656400000000600082015250565b60006163ad601c83614c8c565b91506163b882616377565b602082019050919050565b600060208201905081810360008301526163dc816163a0565b905091905056fe697066733a2f2f516d6237643873795a31477136444e79316774344a796a6d677262544a53663668324d37574173793557706368542fa2646970667358221220109dcefa471a82fd631e2f8694141c0f4387484297a60bb931d82429ebbdc86364736f6c63430008130033",
  "linkReferences": {},
  "deployedLinkReferences": {}
}