{
  "_format": "hh-sol-artifact-1",
  "contractName": "MothoreFoundry",
  "sourceName": "contracts/NFT_collection.sol",
  "abi": [
    {
      "inputs": [],
      "stateMutability": "nonpayable",
      "type": "constructor"
    },
    {
      "anonymous": false,
      "inputs": [
        {
          "indexed": true,
          "internalType": "address",
          "name": "owner",
          "type": "address"
        },
        {
          "indexed": true,
          "internalType": "address",
          "name": "approved",
          "type": "address"
        },
        {
          "indexed": true,
          "internalType": "uint256",
          "name": "tokenId",
          "type": "uint256"
        }
      ],
      "name": "Approval",
      "type": "event"
    },
    {
      "anonymous": false,
      "inputs": [
        {
          "indexed": true,
          "internalType": "address",
          "name": "owner",
          "type": "address"
        },
        {
          "indexed": true,
          "internalType": "address",
          "name": "operator",
          "type": "address"
        },
        {
          "indexed": false,
          "internalType": "bool",
          "name": "approved",
          "type": "bool"
        }
      ],
      "name": "ApprovalForAll",
      "type": "event"
    },
    {
      "anonymous": false,
      "inputs": [
        {
          "indexed": true,
          "internalType": "address",
          "name": "previousOwner",
          "type": "address"
        },
        {
          "indexed": true,
          "internalType": "address",
          "name": "newOwner",
          "type": "address"
        }
      ],
      "name": "OwnershipTransferred",
      "type": "event"
    },
    {
      "anonymous": false,
      "inputs": [
        {
          "indexed": true,
          "internalType": "address",
          "name": "from",
          "type": "address"
        },
        {
          "indexed": true,
          "internalType": "address",
          "name": "to",
          "type": "address"
        },
        {
          "indexed": true,
          "internalType": "uint256",
          "name": "tokenId",
          "type": "uint256"
        }
      ],
      "name": "Transfer",
      "type": "event"
    },
    {
      "inputs": [
        {
          "internalType": "address",
          "name": "to",
          "type": "address"
        },
        {
          "internalType": "uint256",
          "name": "tokenId",
          "type": "uint256"
        }
      ],
      "name": "approve",
      "outputs": [],
      "stateMutability": "nonpayable",
      "type": "function"
    },
    {
      "inputs": [
        {
          "internalType": "address",
          "name": "owner",
          "type": "address"
        }
      ],
      "name": "balanceOf",
      "outputs": [
        {
          "internalType": "uint256",
          "name": "",
          "type": "uint256"
        }
      ],
      "stateMutability": "view",
      "type": "function"
    },
    {
      "inputs": [],
      "name": "baseExtension",
      "outputs": [
        {
          "internalType": "string",
          "name": "",
          "type": "string"
        }
      ],
      "stateMutability": "view",
      "type": "function"
    },
    {
      "inputs": [],
      "name": "baseURI",
      "outputs": [
        {
          "internalType": "string",
          "name": "",
          "type": "string"
        }
      ],
      "stateMutability": "view",
      "type": "function"
    },
    {
      "inputs": [],
      "name": "cost",
      "outputs": [
        {
          "internalType": "uint256",
          "name": "",
          "type": "uint256"
        }
      ],
      "stateMutability": "view",
      "type": "function"
    },
    {
      "inputs": [
        {
          "internalType": "uint256",
          "name": "tokenId",
          "type": "uint256"
        }
      ],
      "name": "getApproved",
      "outputs": [
        {
          "internalType": "address",
          "name": "",
          "type": "address"
        }
      ],
      "stateMutability": "view",
      "type": "function"
    },
    {
      "inputs": [
        {
          "internalType": "address",
          "name": "owner",
          "type": "address"
        },
        {
          "internalType": "address",
          "name": "operator",
          "type": "address"
        }
      ],
      "name": "isApprovedForAll",
      "outputs": [
        {
          "internalType": "bool",
          "name": "",
          "type": "bool"
        }
      ],
      "stateMutability": "view",
      "type": "function"
    },
    {
      "inputs": [],
      "name": "maxMintAmount",
      "outputs": [
        {
          "internalType": "uint256",
          "name": "",
          "type": "uint256"
        }
      ],
      "stateMutability": "view",
      "type": "function"
    },
    {
      "inputs": [],
      "name": "maxSupply",
      "outputs": [
        {
          "internalType": "uint256",
          "name": "",
          "type": "uint256"
        }
      ],
      "stateMutability": "view",
      "type": "function"
    },
    {
      "inputs": [
        {
          "internalType": "address",
          "name": "_to",
          "type": "address"
        },
        {
          "internalType": "uint256",
          "name": "_mintAmount",
          "type": "uint256"
        }
      ],
      "name": "mint",
      "outputs": [],
      "stateMutability": "payable",
      "type": "function"
    },
    {
      "inputs": [],
      "name": "name",
      "outputs": [
        {
          "internalType": "string",
          "name": "",
          "type": "string"
        }
      ],
      "stateMutability": "view",
      "type": "function"
    },
    {
      "inputs": [],
      "name": "owner",
      "outputs": [
        {
          "internalType": "address",
          "name": "",
          "type": "address"
        }
      ],
      "stateMutability": "view",
      "type": "function"
    },
    {
      "inputs": [
        {
          "internalType": "uint256",
          "name": "tokenId",
          "type": "uint256"
        }
      ],
      "name": "ownerOf",
      "outputs": [
        {
          "internalType": "address",
          "name": "",
          "type": "address"
        }
      ],
      "stateMutability": "view",
      "type": "function"
    },
    {
      "inputs": [
        {
          "internalType": "bool",
          "name": "_state",
          "type": "bool"
        }
      ],
      "name": "pause",
      "outputs": [],
      "stateMutability": "nonpayable",
      "type": "function"
    },
    {
      "inputs": [],
      "name": "paused",
      "outputs": [
        {
          "internalType": "bool",
          "name": "",
          "type": "bool"
        }
      ],
      "stateMutability": "view",
      "type": "function"
    },
    {
      "inputs": [],
      "name": "renounceOwnership",
      "outputs": [],
      "stateMutability": "nonpayable",
      "type": "function"
    },
    {
      "inputs": [
        {
          "internalType": "address",
          "name": "from",
          "type": "address"
        },
        {
          "internalType": "address",
          "name": "to",
          "type": "address"
        },
        {
          "internalType": "uint256",
          "name": "tokenId",
          "type": "uint256"
        }
      ],
      "name": "safeTransferFrom",
      "outputs": [],
      "stateMutability": "nonpayable",
      "type": "function"
    },
    {
      "inputs": [
        {
          "internalType": "address",
          "name": "from",
          "type": "address"
        },
        {
          "internalType": "address",
          "name": "to",
          "type": "address"
        },
        {
          "internalType": "uint256",
          "name": "tokenId",
          "type": "uint256"
        },
        {
          "internalType": "bytes",
          "name": "_data",
          "type": "bytes"
        }
      ],
      "name": "safeTransferFrom",
      "outputs": [],
      "stateMutability": "nonpayable",
      "type": "function"
    },
    {
      "inputs": [
        {
          "internalType": "address",
          "name": "operator",
          "type": "address"
        },
        {
          "internalType": "bool",
          "name": "approved",
          "type": "bool"
        }
      ],
      "name": "setApprovalForAll",
      "outputs": [],
      "stateMutability": "nonpayable",
      "type": "function"
    },
    {
      "inputs": [
        {
          "internalType": "string",
          "name": "_newBaseExtension",
          "type": "string"
        }
      ],
      "name": "setBaseExtension",
      "outputs": [],
      "stateMutability": "nonpayable",
      "type": "function"
    },
    {
      "inputs": [
        {
          "internalType": "string",
          "name": "_newBaseURI",
          "type": "string"
        }
      ],
      "name": "setBaseURI",
      "outputs": [],
      "stateMutability": "nonpayable",
      "type": "function"
    },
    {
      "inputs": [
        {
          "internalType": "uint256",
          "name": "_newmaxMintAmount",
          "type": "uint256"
        }
      ],
      "name": "setmaxMintAmount",
      "outputs": [],
      "stateMutability": "nonpayable",
      "type": "function"
    },
    {
      "inputs": [
        {
          "internalType": "bytes4",
          "name": "interfaceId",
          "type": "bytes4"
        }
      ],
      "name": "supportsInterface",
      "outputs": [
        {
          "internalType": "bool",
          "name": "",
          "type": "bool"
        }
      ],
      "stateMutability": "view",
      "type": "function"
    },
    {
      "inputs": [],
      "name": "symbol",
      "outputs": [
        {
          "internalType": "string",
          "name": "",
          "type": "string"
        }
      ],
      "stateMutability": "view",
      "type": "function"
    },
    {
      "inputs": [
        {
          "internalType": "uint256",
          "name": "index",
          "type": "uint256"
        }
      ],
      "name": "tokenByIndex",
      "outputs": [
        {
          "internalType": "uint256",
          "name": "",
          "type": "uint256"
        }
      ],
      "stateMutability": "view",
      "type": "function"
    },
    {
      "inputs": [
        {
          "internalType": "address",
          "name": "owner",
          "type": "address"
        },
        {
          "internalType": "uint256",
          "name": "index",
          "type": "uint256"
        }
      ],
      "name": "tokenOfOwnerByIndex",
      "outputs": [
        {
          "internalType": "uint256",
          "name": "",
          "type": "uint256"
        }
      ],
      "stateMutability": "view",
      "type": "function"
    },
    {
      "inputs": [
        {
          "internalType": "uint256",
          "name": "tokenId",
          "type": "uint256"
        }
      ],
      "name": "tokenURI",
      "outputs": [
        {
          "internalType": "string",
          "name": "",
          "type": "string"
        }
      ],
      "stateMutability": "view",
      "type": "function"
    },
    {
      "inputs": [],
      "name": "totalSupply",
      "outputs": [
        {
          "internalType": "uint256",
          "name": "",
          "type": "uint256"
        }
      ],
      "stateMutability": "view",
      "type": "function"
    },
    {
      "inputs": [
        {
          "internalType": "address",
          "name": "from",
          "type": "address"
        },
        {
          "internalType": "address",
          "name": "to",
          "type": "address"
        },
        {
          "internalType": "uint256",
          "name": "tokenId",
          "type": "uint256"
        }
      ],
      "name": "transferFrom",
      "outputs": [],
      "stateMutability": "nonpayable",
      "type": "function"
    },
    {
      "inputs": [
        {
          "internalType": "address",
          "name": "newOwner",
          "type": "address"
        }
      ],
      "name": "transferOwnership",
      "outputs": [],
      "stateMutability": "nonpayable",
      "type": "function"
    },
    {
      "inputs": [
        {
          "internalType": "address",
          "name": "_owner",
          "type": "address"
        }
      ],
      "name": "walletOfOwner",
      "outputs": [
        {
          "internalType": "uint256[]",
          "name": "",
          "type": "uint256[]"
        }
      ],
      "stateMutability": "view",
      "type": "function"
    },
    {
      "inputs": [],
      "name": "withdraw",
      "outputs": [],
      "stateMutability": "payable",
      "type": "function"
    }
  ],
  "bytecode": "0x60c06040526005608090815264173539b7b760d91b60a052600c90620000269082620001e5565b5066b1a2bc2ec50000600d556103e8600e556005600f556010805460ff191690553480156200005457600080fd5b506040518060400160405280601e81526020017f4d6f74686f726520466f756e647279204e465420436f6c6c656374696f6e00008152506040518060400160405280600381526020016226a32760e91b8152508160009081620000b89190620001e5565b506001620000c78282620001e5565b505050620000e4620000de620000ea60201b60201c565b620000ee565b620002b1565b3390565b600a80546001600160a01b038381166001600160a01b0319831681179093556040519116919082907f8be0079c531659141344cd1fd0a4f28419497f9722a3daafe3b4186f6b6457e090600090a35050565b634e487b7160e01b600052604160045260246000fd5b600181811c908216806200016b57607f821691505b6020821081036200018c57634e487b7160e01b600052602260045260246000fd5b50919050565b601f821115620001e057600081815260208120601f850160051c81016020861015620001bb5750805b601f850160051c820191505b81811015620001dc57828155600101620001c7565b5050505b505050565b81516001600160401b0381111562000201576200020162000140565b620002198162000212845462000156565b8462000192565b602080601f831160018114620002515760008415620002385750858301515b600019600386901b1c1916600185901b178555620001dc565b600085815260208120601f198616915b82811015620002825788860151825594840194600190910190840162000261565b5085821015620002a15787850151600019600388901b60f8161c191681555b5050505050600190811b01905550565b61260180620002c16000396000f3fe6080604052600436106101e35760003560e01c80635c975abb11610102578063a22cb46511610095578063d5abeb0111610064578063d5abeb011461053c578063da3ef23f14610552578063e985e9c514610572578063f2fde38b146105bb57600080fd5b8063a22cb465146104c7578063b88d4fde146104e7578063c668286214610507578063c87b56dd1461051c57600080fd5b8063715018a6116100d1578063715018a61461045f5780637f00c7a6146104745780638da5cb5b1461049457806395d89b41146104b257600080fd5b80635c975abb146103f05780636352211e1461040a5780636c0360eb1461042a57806370a082311461043f57600080fd5b806323b872dd1161017a57806342842e0e1161014957806342842e0e14610363578063438b6300146103835780634f6ccce7146103b057806355f804b3146103d057600080fd5b806323b872dd146103085780632f745c59146103285780633ccfd60b1461034857806340c10f191461035057600080fd5b8063095ea7b3116101b6578063095ea7b31461029957806313faede6146102b957806318160ddd146102dd578063239c70ae146102f257600080fd5b806301ffc9a7146101e857806302329a291461021d57806306fdde031461023f578063081812fc14610261575b600080fd5b3480156101f457600080fd5b50610208610203366004611f2b565b6105db565b60405190151581526020015b60405180910390f35b34801561022957600080fd5b5061023d610238366004611f5d565b61061f565b005b34801561024b57600080fd5b50610254610691565b6040516102149190611fc8565b34801561026d57600080fd5b5061028161027c366004611fdb565b610723565b6040516001600160a01b039091168152602001610214565b3480156102a557600080fd5b5061023d6102b436600461200b565b6107b8565b3480156102c557600080fd5b506102cf600d5481565b604051908152602001610214565b3480156102e957600080fd5b506008546102cf565b3480156102fe57600080fd5b506102cf600f5481565b34801561031457600080fd5b5061023d610323366004612035565b6108e9565b34801561033457600080fd5b506102cf61034336600461200b565b610970565b61023d610a18565b61023d61035e36600461200b565b610a98565b34801561036f57600080fd5b5061023d61037e366004612035565b610b8d565b34801561038f57600080fd5b506103a361039e366004612071565b610ba8565b604051610214919061208c565b3480156103bc57600080fd5b506102cf6103cb366004611fdb565b610c4a565b3480156103dc57600080fd5b5061023d6103eb36600461215c565b610cee565b3480156103fc57600080fd5b506010546102089060ff1681565b34801561041657600080fd5b50610281610425366004611fdb565b610d58565b34801561043657600080fd5b50610254610de3565b34801561044b57600080fd5b506102cf61045a366004612071565b610e71565b34801561046b57600080fd5b5061023d610f0b565b34801561048057600080fd5b5061023d61048f366004611fdb565b610f6f565b3480156104a057600080fd5b50600a546001600160a01b0316610281565b3480156104be57600080fd5b50610254610fce565b3480156104d357600080fd5b5061023d6104e23660046121a5565b610fdd565b3480156104f357600080fd5b5061023d6105023660046121d8565b6110a1565b34801561051357600080fd5b50610254611129565b34801561052857600080fd5b50610254610537366004611fdb565b611136565b34801561054857600080fd5b506102cf600e5481565b34801561055e57600080fd5b5061023d61056d36600461215c565b611222565b34801561057e57600080fd5b5061020861058d366004612254565b6001600160a01b03918216600090815260056020908152604080832093909416825291909152205460ff1690565b3480156105c757600080fd5b5061023d6105d6366004612071565b611288565b60006001600160e01b031982167f780e9d6300000000000000000000000000000000000000000000000000000000148061061957506106198261136a565b92915050565b600a546001600160a01b0316331461067e5760405162461bcd60e51b815260206004820181905260248201527f4f776e61626c653a2063616c6c6572206973206e6f7420746865206f776e657260448201526064015b60405180910390fd5b6010805460ff1916911515919091179055565b6060600080546106a09061227e565b80601f01602080910402602001604051908101604052809291908181526020018280546106cc9061227e565b80156107195780601f106106ee57610100808354040283529160200191610719565b820191906000526020600020905b8154815290600101906020018083116106fc57829003601f168201915b5050505050905090565b6000818152600260205260408120546001600160a01b031661079c5760405162461bcd60e51b815260206004820152602c60248201527f4552433732313a20617070726f76656420717565727920666f72206e6f6e657860448201526b34b9ba32b73a103a37b5b2b760a11b6064820152608401610675565b506000908152600460205260409020546001600160a01b031690565b60006107c382610d58565b9050806001600160a01b0316836001600160a01b03160361084c5760405162461bcd60e51b815260206004820152602160248201527f4552433732313a20617070726f76616c20746f2063757272656e74206f776e6560448201527f72000000000000000000000000000000000000000000000000000000000000006064820152608401610675565b336001600160a01b03821614806108685750610868813361058d565b6108da5760405162461bcd60e51b815260206004820152603860248201527f4552433732313a20617070726f76652063616c6c6572206973206e6f74206f7760448201527f6e6572206e6f7220617070726f76656420666f7220616c6c00000000000000006064820152608401610675565b6108e48383611405565b505050565b6108f33382611480565b6109655760405162461bcd60e51b815260206004820152603160248201527f4552433732313a207472616e736665722063616c6c6572206973206e6f74206f60448201527f776e6572206e6f7220617070726f7665640000000000000000000000000000006064820152608401610675565b6108e4838383611577565b600061097b83610e71565b82106109ef5760405162461bcd60e51b815260206004820152602b60248201527f455243373231456e756d657261626c653a206f776e657220696e646578206f7560448201527f74206f6620626f756e64730000000000000000000000000000000000000000006064820152608401610675565b506001600160a01b03919091166000908152600660209081526040808320938352929052205490565b600a546001600160a01b03163314610a725760405162461bcd60e51b815260206004820181905260248201527f4f776e61626c653a2063616c6c6572206973206e6f7420746865206f776e65726044820152606401610675565b60405133904780156108fc02916000818181858888f19350505050610a9657600080fd5b565b6000610aa360085490565b60105490915060ff1615610ab657600080fd5b60008211610ac357600080fd5b600f54821115610ad257600080fd5b600e54610adf83836122ce565b1115610aea57600080fd5b600a546001600160a01b03163314610b585781600d54610b0a91906122e1565b3414610b585760405162461bcd60e51b815260206004820152601860248201527f4e65656420746f2073656e6420302e30382065746865722100000000000000006044820152606401610675565b60015b828111610b8757610b7584610b7083856122ce565b61175c565b80610b7f816122f8565b915050610b5b565b50505050565b6108e4838383604051806020016040528060008152506110a1565b60606000610bb583610e71565b905060008167ffffffffffffffff811115610bd257610bd26120d0565b604051908082528060200260200182016040528015610bfb578160200160208202803683370190505b50905060005b82811015610c4257610c138582610970565b828281518110610c2557610c25612311565b602090810291909101015280610c3a816122f8565b915050610c01565b509392505050565b6000610c5560085490565b8210610cc95760405162461bcd60e51b815260206004820152602c60248201527f455243373231456e756d657261626c653a20676c6f62616c20696e646578206f60448201527f7574206f6620626f756e647300000000000000000000000000000000000000006064820152608401610675565b60088281548110610cdc57610cdc612311565b90600052602060002001549050919050565b600a546001600160a01b03163314610d485760405162461bcd60e51b815260206004820181905260248201527f4f776e61626c653a2063616c6c6572206973206e6f7420746865206f776e65726044820152606401610675565b600b610d548282612375565b5050565b6000818152600260205260408120546001600160a01b0316806106195760405162461bcd60e51b815260206004820152602960248201527f4552433732313a206f776e657220717565727920666f72206e6f6e657869737460448201527f656e7420746f6b656e00000000000000000000000000000000000000000000006064820152608401610675565b600b8054610df09061227e565b80601f0160208091040260200160405190810160405280929190818152602001828054610e1c9061227e565b8015610e695780601f10610e3e57610100808354040283529160200191610e69565b820191906000526020600020905b815481529060010190602001808311610e4c57829003601f168201915b505050505081565b60006001600160a01b038216610eef5760405162461bcd60e51b815260206004820152602a60248201527f4552433732313a2062616c616e636520717565727920666f7220746865207a6560448201527f726f2061646472657373000000000000000000000000000000000000000000006064820152608401610675565b506001600160a01b031660009081526003602052604090205490565b600a546001600160a01b03163314610f655760405162461bcd60e51b815260206004820181905260248201527f4f776e61626c653a2063616c6c6572206973206e6f7420746865206f776e65726044820152606401610675565b610a966000611776565b600a546001600160a01b03163314610fc95760405162461bcd60e51b815260206004820181905260248201527f4f776e61626c653a2063616c6c6572206973206e6f7420746865206f776e65726044820152606401610675565b600f55565b6060600180546106a09061227e565b336001600160a01b038316036110355760405162461bcd60e51b815260206004820152601960248201527f4552433732313a20617070726f766520746f2063616c6c6572000000000000006044820152606401610675565b3360008181526005602090815260408083206001600160a01b03871680855290835292819020805460ff191686151590811790915590519081529192917f17307eab39ab6107e8899845ad3d59bd9653f200f220920489ca2b5937696c31910160405180910390a35050565b6110ab3383611480565b61111d5760405162461bcd60e51b815260206004820152603160248201527f4552433732313a207472616e736665722063616c6c6572206973206e6f74206f60448201527f776e6572206e6f7220617070726f7665640000000000000000000000000000006064820152608401610675565b610b87848484846117d5565b600c8054610df09061227e565b6000818152600260205260409020546060906001600160a01b03166111c35760405162461bcd60e51b815260206004820152602f60248201527f4552433732314d657461646174613a2055524920717565727920666f72206e6f60448201527f6e6578697374656e7420746f6b656e00000000000000000000000000000000006064820152608401610675565b60006111cd611853565b905060008151116111ed576040518060200160405280600081525061121b565b806111f784611873565b600c60405160200161120b93929190612435565b6040516020818303038152906040525b9392505050565b600a546001600160a01b0316331461127c5760405162461bcd60e51b815260206004820181905260248201527f4f776e61626c653a2063616c6c6572206973206e6f7420746865206f776e65726044820152606401610675565b600c610d548282612375565b600a546001600160a01b031633146112e25760405162461bcd60e51b815260206004820181905260248201527f4f776e61626c653a2063616c6c6572206973206e6f7420746865206f776e65726044820152606401610675565b6001600160a01b03811661135e5760405162461bcd60e51b815260206004820152602660248201527f4f776e61626c653a206e6577206f776e657220697320746865207a65726f206160448201527f64647265737300000000000000000000000000000000000000000000000000006064820152608401610675565b61136781611776565b50565b60006001600160e01b031982167f80ac58cd0000000000000000000000000000000000000000000000000000000014806113cd57506001600160e01b031982167f5b5e139f00000000000000000000000000000000000000000000000000000000145b8061061957507f01ffc9a7000000000000000000000000000000000000000000000000000000006001600160e01b0319831614610619565b6000818152600460205260409020805473ffffffffffffffffffffffffffffffffffffffff19166001600160a01b038416908117909155819061144782610d58565b6001600160a01b03167f8c5be1e5ebec7d5bd14f71427d1e84f3dd0314c0f7b2291e5b200ac8c7c3b92560405160405180910390a45050565b6000818152600260205260408120546001600160a01b03166114f95760405162461bcd60e51b815260206004820152602c60248201527f4552433732313a206f70657261746f7220717565727920666f72206e6f6e657860448201526b34b9ba32b73a103a37b5b2b760a11b6064820152608401610675565b600061150483610d58565b9050806001600160a01b0316846001600160a01b0316148061153f5750836001600160a01b031661153484610723565b6001600160a01b0316145b8061156f57506001600160a01b0380821660009081526005602090815260408083209388168352929052205460ff165b949350505050565b826001600160a01b031661158a82610d58565b6001600160a01b0316146116065760405162461bcd60e51b815260206004820152602960248201527f4552433732313a207472616e73666572206f6620746f6b656e2074686174206960448201527f73206e6f74206f776e00000000000000000000000000000000000000000000006064820152608401610675565b6001600160a01b0382166116815760405162461bcd60e51b8152602060048201526024808201527f4552433732313a207472616e7366657220746f20746865207a65726f2061646460448201527f72657373000000000000000000000000000000000000000000000000000000006064820152608401610675565b61168c8383836119a8565b611697600082611405565b6001600160a01b03831660009081526003602052604081208054600192906116c09084906124d5565b90915550506001600160a01b03821660009081526003602052604081208054600192906116ee9084906122ce565b9091555050600081815260026020526040808220805473ffffffffffffffffffffffffffffffffffffffff19166001600160a01b0386811691821790925591518493918716917fddf252ad1be2c89b69c2b068fc378daa952ba7f163c4a11628f55a4df523b3ef91a4505050565b610d54828260405180602001604052806000815250611a60565b600a80546001600160a01b0383811673ffffffffffffffffffffffffffffffffffffffff19831681179093556040519116919082907f8be0079c531659141344cd1fd0a4f28419497f9722a3daafe3b4186f6b6457e090600090a35050565b6117e0848484611577565b6117ec84848484611ade565b610b875760405162461bcd60e51b815260206004820152603260248201527f4552433732313a207472616e7366657220746f206e6f6e20455243373231526560448201527131b2b4bb32b91034b6b83632b6b2b73a32b960711b6064820152608401610675565b606060405180606001604052806036815260200161259660369139905090565b6060816000036118b657505060408051808201909152600181527f3000000000000000000000000000000000000000000000000000000000000000602082015290565b8160005b81156118e057806118ca816122f8565b91506118d99050600a836124fe565b91506118ba565b60008167ffffffffffffffff8111156118fb576118fb6120d0565b6040519080825280601f01601f191660200182016040528015611925576020820181803683370190505b5090505b841561156f5761193a6001836124d5565b9150611947600a86612512565b6119529060306122ce565b60f81b81838151811061196757611967612311565b60200101907effffffffffffffffffffffffffffffffffffffffffffffffffffffffffffff1916908160001a9053506119a1600a866124fe565b9450611929565b6001600160a01b038316611a03576119fe81600880546000838152600960205260408120829055600182018355919091527ff3f7a9fe364faab93b216da50a3214154f22a0a2b415b23a84c8169e8b636ee30155565b611a26565b816001600160a01b0316836001600160a01b031614611a2657611a268382611c2a565b6001600160a01b038216611a3d576108e481611cc7565b826001600160a01b0316826001600160a01b0316146108e4576108e48282611d76565b611a6a8383611dba565b611a776000848484611ade565b6108e45760405162461bcd60e51b815260206004820152603260248201527f4552433732313a207472616e7366657220746f206e6f6e20455243373231526560448201527131b2b4bb32b91034b6b83632b6b2b73a32b960711b6064820152608401610675565b60006001600160a01b0384163b15611c1f57604051630a85bd0160e11b81526001600160a01b0385169063150b7a0290611b22903390899088908890600401612526565b6020604051808303816000875af1925050508015611b5d575060408051601f3d908101601f19168201909252611b5a91810190612562565b60015b611c05573d808015611b8b576040519150601f19603f3d011682016040523d82523d6000602084013e611b90565b606091505b508051600003611bfd5760405162461bcd60e51b815260206004820152603260248201527f4552433732313a207472616e7366657220746f206e6f6e20455243373231526560448201527131b2b4bb32b91034b6b83632b6b2b73a32b960711b6064820152608401610675565b805181602001fd5b6001600160e01b031916630a85bd0160e11b14905061156f565b506001949350505050565b60006001611c3784610e71565b611c4191906124d5565b600083815260076020526040902054909150808214611c94576001600160a01b03841660009081526006602090815260408083208584528252808320548484528184208190558352600790915290208190555b5060009182526007602090815260408084208490556001600160a01b039094168352600681528383209183525290812055565b600854600090611cd9906001906124d5565b60008381526009602052604081205460088054939450909284908110611d0157611d01612311565b906000526020600020015490508060088381548110611d2257611d22612311565b6000918252602080832090910192909255828152600990915260408082208490558582528120556008805480611d5a57611d5a61257f565b6001900381819060005260206000200160009055905550505050565b6000611d8183610e71565b6001600160a01b039093166000908152600660209081526040808320868452825280832085905593825260079052919091209190915550565b6001600160a01b038216611e105760405162461bcd60e51b815260206004820181905260248201527f4552433732313a206d696e7420746f20746865207a65726f20616464726573736044820152606401610675565b6000818152600260205260409020546001600160a01b031615611e755760405162461bcd60e51b815260206004820152601c60248201527f4552433732313a20746f6b656e20616c7265616479206d696e746564000000006044820152606401610675565b611e81600083836119a8565b6001600160a01b0382166000908152600360205260408120805460019290611eaa9084906122ce565b9091555050600081815260026020526040808220805473ffffffffffffffffffffffffffffffffffffffff19166001600160a01b03861690811790915590518392907fddf252ad1be2c89b69c2b068fc378daa952ba7f163c4a11628f55a4df523b3ef908290a45050565b6001600160e01b03198116811461136757600080fd5b600060208284031215611f3d57600080fd5b813561121b81611f15565b80358015158114611f5857600080fd5b919050565b600060208284031215611f6f57600080fd5b61121b82611f48565b60005b83811015611f93578181015183820152602001611f7b565b50506000910152565b60008151808452611fb4816020860160208601611f78565b601f01601f19169290920160200192915050565b60208152600061121b6020830184611f9c565b600060208284031215611fed57600080fd5b5035919050565b80356001600160a01b0381168114611f5857600080fd5b6000806040838503121561201e57600080fd5b61202783611ff4565b946020939093013593505050565b60008060006060848603121561204a57600080fd5b61205384611ff4565b925061206160208501611ff4565b9150604084013590509250925092565b60006020828403121561208357600080fd5b61121b82611ff4565b6020808252825182820181905260009190848201906040850190845b818110156120c4578351835292840192918401916001016120a8565b50909695505050505050565b634e487b7160e01b600052604160045260246000fd5b600067ffffffffffffffff80841115612101576121016120d0565b604051601f8501601f19908116603f01168101908282118183101715612129576121296120d0565b8160405280935085815286868601111561214257600080fd5b858560208301376000602087830101525050509392505050565b60006020828403121561216e57600080fd5b813567ffffffffffffffff81111561218557600080fd5b8201601f8101841361219657600080fd5b61156f848235602084016120e6565b600080604083850312156121b857600080fd5b6121c183611ff4565b91506121cf60208401611f48565b90509250929050565b600080600080608085870312156121ee57600080fd5b6121f785611ff4565b935061220560208601611ff4565b925060408501359150606085013567ffffffffffffffff81111561222857600080fd5b8501601f8101871361223957600080fd5b612248878235602084016120e6565b91505092959194509250565b6000806040838503121561226757600080fd5b61227083611ff4565b91506121cf60208401611ff4565b600181811c9082168061229257607f821691505b6020821081036122b257634e487b7160e01b600052602260045260246000fd5b50919050565b634e487b7160e01b600052601160045260246000fd5b80820180821115610619576106196122b8565b8082028115828204841417610619576106196122b8565b60006001820161230a5761230a6122b8565b5060010190565b634e487b7160e01b600052603260045260246000fd5b601f8211156108e457600081815260208120601f850160051c8101602086101561234e5750805b601f850160051c820191505b8181101561236d5782815560010161235a565b505050505050565b815167ffffffffffffffff81111561238f5761238f6120d0565b6123a38161239d845461227e565b84612327565b602080601f8311600181146123d857600084156123c05750858301515b600019600386901b1c1916600185901b17855561236d565b600085815260208120601f198616915b82811015612407578886015182559484019460019091019084016123e8565b50858210156124255787850151600019600388901b60f8161c191681555b5050505050600190811b01905550565b6000845160206124488285838a01611f78565b85519184019161245b8184848a01611f78565b855492019160009061246c8161227e565b600182811680156124845760018114612499576124c5565b60ff19841687528215158302870194506124c5565b896000528560002060005b848110156124bd578154898201529083019087016124a4565b505082870194505b50929a9950505050505050505050565b81810381811115610619576106196122b8565b634e487b7160e01b600052601260045260246000fd5b60008261250d5761250d6124e8565b500490565b600082612521576125216124e8565b500690565b60006001600160a01b038087168352808616602084015250836040830152608060608301526125586080830184611f9c565b9695505050505050565b60006020828403121561257457600080fd5b815161121b81611f15565b634e487b7160e01b600052603160045260246000fdfe697066733a2f2f516d6237643873795a31477136444e79316774344a796a6d677262544a53663668324d37574173793557706368542fa2646970667358221220a14f4b47cbea029a61b16167b601124394aec14026e3122d79383ab8a89f1c2b64736f6c63430008130033",
  "linkReferences": {},
  "deployedLinkReferences": {}
}